:020000040800F2
:10000000D806002001010008C7120008511000089E
:10001000C51200085901000821170008000000005F
:10002000000000000000000000000000EB120008CB
:100030005B01000800000000E9120008ED12000852
:100040001B0100081B0100081B0100081B01000820
:100050001B0100081B0100081B0100081B01000810
:100060001B0100081B0100081B0100081B01000800
:100070001B0100081B0100081B0100081B010008F0
:100080001B0100081B0100081B0100081B010008E0
:100090001B0100081B0100081B0100081B010008D0
:1000A0001B0100081B0100081B0100081B010008C0
:1000B0001B0100081B010008A11300081B01000818
:1000C0001B0100081B0100081B0100081B010008A0
:1000D0001B010008151700081B0100081B01000880
:1000E0001B0100081B0100081B010008DFF80CD0F1
:1000F00000F020F8004800474D180008D8060020FE
:100100000648804706480047FEE7FEE7FEE7FEE7B1
:10011000FEE7FEE7FEE7FEE7FEE7FEE7591300080D
:10012000ED000008421C10F8011B0029FBD1801AC9
:1001300070470000064C074D06E0E06840F0010300
:1001400094E8070098471034AC42F6D3FFF7D2FF8B
:100150006C1B00088C1B0008FEE7704710B590F878
:1001600021100024022903D00421816301243DE0F1
:1001700001680A6822F00E020A6001680A6822F02B
:1001800001020A601A4A0168914201D1012121E06D
:10019000174A1432914201D110211BE0144A28322F
:1001A000914201D1891515E0114A3C32914201D1A9
:1001B00089140FE00E4A5032914202D14FF480313F
:1001C00008E00B4A6432914202D14FF4801101E001
:1001D0004FF08071064A083A5160012180F82110E1
:1001E000002180F82010416B01B18847204610BDE6
:1001F0000800024070B5044600F0F2F80546601CA5
:1002000002D004480078044400F0EAF8401BA04201
:10021000FAD370BD040000202DE9F84FDFF890A15B
:1002200000220AF1040B144601274FF00F090BF1CD
:10023000040E00BF0B6807FA04F52B40AB4274D1E3
:10024000DFF870C14E68A6EB0C0866452BD00DDCBC
:10025000032E34D005DC36B3012E19D0022E2FD157
:100260001BE0112E16D0122E2AD119E0B8F5881FE6
:1002700019D006DCB8F5803F15D0B8F5801F1FD126
:1002800011E0B8F5001F0ED0B8F5041F18D10AE030
:10029000CA6815E0CA68121D12E0CA6808320FE089
:1002A000CA680C320CE08A682AB1012A4FF00802B1
:1002B00003D0456104E0042202E0056100E0002271
:1002C000FF2B01D8064601E000F104064FEA840541
:1002D00001D9A5F12005D6F800C009FA05F82CEAE5
:1002E000080C02FA05F54CEA050CC6F800C04D688A
:1002F000ED0057D5304DAE6946F00106AE61AD69EF
:1003000024F0030605F0010500952C4D06EB050CC5
:10031000DCF80850A6074FEA167809FA08F6B54344
:10032000274EB04202D1002610E03BE0254EB042FD
:1003300001D101260AE0244EB04201D1022605E097
:10034000224EB04201D1032600E0042606FA08F648
:100350002E43CCF808604D68DAF80060ED0355468E
:1003600001D51E4300E09E432E604D68DBF800601F
:10037000AD035D4601D51E4300E09E432E604D68EF
:10038000DEF80060ED02754601D51E4300E09E4395
:100390002E604D68AD020E4D2E6801D51E4300E063
:1003A0009E432E60641C102CFFF444AFBDE8F88F10
:1003B0000004014000001110001002400000014044
:1003C00000080140000C01400010014000140140F1
:1003D0000C0401400AB1016170470904FBE7000009
:1003E00001488068704700000400002002488168CE
:1003F000027811448160704704000020074810B55E
:10040000016841F010010160032000F0B7F80020FE
:1004100000F006F800F03EF8002010BD0020024079
:1004200000B5014687B000221E2000F087F81E208C
:1004300000F078F81348C16941F00401C161C06956
:1004400005A900F004000690684600F053F900F09A
:1004500077F90D494000B0FBF1F10D480B4A491EF8
:100460000260416040F2E7320021C0E9032181606F
:1004700000F065FB10B1012007B000BD044800F09A
:100480007AFBF9E70010024040420F0000080040EC
:1004900098020020214808B5816941F0010181617D
:1004A000816901F001010091C16941F08051C16190
:1004B000C06900F080500090032000F05FF8002237
:1004C00011466FF00B0000F039F8002211466FF072
:1004D0000A0000F033F8002211466FF0090000F026
:1004E0002DF800221146501F00F028F80022114676
:1004F000101F00F023F800221146901E00F01EF895
:1005000000221146501E00F019F80548416821F0FC
:10051000E06141F00071416008BD00000010024040
:100520000000014000F01F020121914040098000BD
:1005300000F1E020C0F8001170470000F0B40E4B4D
:100540001B680C46C3F30223C3F10705042D00D931
:100550000425191D072901D2002300E0DB1E012616
:1005600006FA05F1491E214099409E40761E16402C
:100570003143F0BC00F0A8BE0CED00E0064900F0ED
:10058000070208684FF6FF03184040EA0220034ABA
:1005900010430860704700000CED00E00000FA0511
:1005A0002DE9F047DFF83C8105460E46D8F80000FB
:1005B00000F00700B0420CD2D8F8001021F007017B
:1005C0003143C8F80010D8F8000000F00700B0422E
:1005D00063D12878444C800705D56068A96820F06D
:1005E000F000084360602878C00745D0686801289B
:1005F00016D02168022816D0890700294DDA6168D3
:1006000021F0030101436160FFF7EAFE69680746D4
:1006100041F2883001290FD00229814619D027E004
:1006200021688903E9E78901E7E700BFFFF7D8FE02
:10063000C11B494501D918E081466068C0F38100BB
:100640000128F3D118E000BFFFF7CAFEC11B4945DE
:100650000BD86068C0F381000228F5D10CE000BF20
:10066000FFF7BEFEC11B494502D90320BDE8F08754
:10067000606810F00C0FF3D1D8F80010404601F07C
:100680000701B1420BD9016821F007013143016034
:10069000006800F00700B04201D00120E6E72878AA
:1006A000400705D56068E96820F4E06008436060B1
:1006B0002878000706D56068296920F4605040EA70
:1006C000C100606000F05CF86168084AC1F3031182
:1006D000515CC840064908600020FFF7A1FE0020D9
:1006E000C4E700000020024000100240541B000834
:1006F000100000200F2202600C4A536803F003032D
:100700004360536803F0F0038360536803F4E063CD
:10071000C36052684FF4E06303EAD2020261044806
:10072000006800F0070008607047000000100240F9
:1007300000200240014800687047000010000020BF
:100740000448054900684968044AC1F30221515C24
:10075000C84070471000002000100240641B0008D1
:100760000448054900684968044AC1F3C221515C44
:10077000C84070471000002000100240641B0008B1
:1007800012A185B00FC98DE80F0014A0144A0068AB
:1007900004905168134801F00C03042B10D0082B6F
:1007A0000ED1C1F38343C9031DF803000AD5516874
:1007B00004AAC1F34041515C0A4A5043B0FBF1F036
:1007C00005B0704708494843FAE7000002030405F2
:1007D000060708090A0B0C0D0E0F1010010200008D
:1007E0000010024000127A0000093D002DE9F84F88
:1007F00004460078B94DC00748D06868C0F381004E
:10080000012807D06868C0F38100022809D1686810
:10081000C00306D52868800338D5606800286FD0EB
:1008200034E06068B0F5803F0BD010B1B0F5A02F78
:1008300011D0286820F480302860286820F48020B7
:1008400002E0286840F480302860606888B1FFF7D3
:10085000C7FD064609E0286840F480202860F0E7DC
:10086000FFF7BEFD801B642875D828688003F7D584
:100870000CE0FFF7B5FD064605E000BFFFF7B0FD51
:10088000801B6428F0D828688003F7D42078944E21
:1008900080074FF001094FF000083BD5686810F061
:1008A0000C0F07D06868C0F38100022809D168687E
:1008B000C00306D42868800714D5206901281FD1F9
:1008C00010E02069B0B1C6F80090FFF789FD074637
:1008D00005E000BFFFF784FDC01B0228C4D82868CC
:1008E0008007F7D52868616920F0F80040EAC10068
:1008F00028600FE0C6F80080FFF772FD074606E0AB
:10090000E9E000BFFFF76CFDC01B022823D8286870
:100910008007F7D4207800072CD57248A169D9B197
:10092000C0F80090FFF75CFD074604E0FFF758FDB4
:10093000C01B02280FD8686A8007F7D56A484FF4B1
:10094000FA510068B0FBF1F0009000BF0098411E22
:100950000091FAD20EE080E0C0F80080FFF740FD81
:10096000074604E0FFF73CFDC01B022875D8686A03
:100970008007F7D42078400760D5E8690027C000D9
:1009800008D4E86940F08050E861E869012700F088
:100990008050009055480168C90513D4016883460A
:1009A00041F480710160FFF71BFD824606E000BF45
:1009B000FFF716FDA0EB0A0064284ED8DBF8000014
:1009C000C005F5D5E06801280AD008B1052813D084
:1009D000286A20F001002862286A20F0040002E062
:1009E000286A40F001002862E06841F2883B98B133
:1009F000FFF7F6FC82460BE0286A40F0040028620C
:100A0000EEE700BFFFF7ECFCA0EB0A0159455AD80E
:100A1000286A8007F6D50CE0FFF7E2FC824605E085
:100A2000FFF7DEFCA0EB0A0159454CD8286A800785
:100A3000F6D41FB1E86920F08050E861E06988B31E
:100A40006968C1F38101022945D00228C6F8608097
:100A500004D0FFF7C5FC044638E034E0FFF7C0FCE3
:100A6000074604E0FFF7BCFCC01B02282BD828680F
:100A70008001F7D4206AB0F5803F05D16868A1688D
:100A800020F4003008436860D4E90801084369682D
:100A900021F4741108436860C6F86090FFF7A0FC69
:100AA000044606E015E000BFFFF79AFC001B022891
:100AB00009D828688001F7D50BE000BFFFF790FC4C
:100AC000001B022802D90320BDE8F88F28688001A6
:100AD000F4D40020F8E70120F6E7000000100240FF
:100AE000000042428004424210000020007000409A
:100AF0004FF0E0210428086903D020F004000861C9
:100B0000704740F00400FAE7704710B5401EB0F19E
:100B1000807F01D3012010BD4FF0E02460610F21E0
:100B2000601700F0D1FB0020A061072020610020A9
:100B300010BD10B5FFF7E8FF10BD7047704710B546
:100B4000040003D094F83D0010B107E0012010BD6F
:100B5000002084F83C00204600F00CF8022084F8C5
:100B60003D00211D206800F021FC012084F83D009B
:100B7000002010BD70470168CA6842F00102CA60D7
:100B80000068016841F00101016000207047704772
:100B900070B50446006801694FF00005C943890734
:100BA00015D4C168C943890711D4E91E0161012028
:100BB0002077206880698007204602D0FFF7E7FF92
:100BC00004E000F098F8204600F096F825772068B9
:100BD0000169C943490717D4C168C943490713D4F8
:100BE0006FF004010161022020772068806910F411
:100BF000407F204602D0FFF7CAFF04E000F07BF8F8
:100C0000204600F079F8257720680169C943090773
:100C100016D4C168C943090712D46FF008010161F5
:100C2000042020772068C0698007204602D0FFF7A3
:100C3000AEFF04E000F05FF8204600F05DF8257795
:100C400020680169C943C90617D4C168C943C906E8
:100C500013D46FF010010161082020772068C0696B
:100C600010F4407F204602D0FFF791FF04E000F02F
:100C700042F8204600F040F8257720680169C94312
:100C8000C90708D1C168C943C90704D1891E0161D8
:100C9000204600F033F820680169C943090609D4E9
:100CA000C168C943090605D46FF08001016120467F
:100CB000FFF743FF20680169C943490609D4C168A9
:100CC000C943490605D46FF040010161204600F098
:100CD0001FF820680169C94389060BD4C168C9435C
:100CE000890607D46FF0200101612046BDE87040FD
:100CF000FFF724BF70BD70477047000000680349CC
:100D0000884201D1FFF772BB704700000008004025
:100D10007047704770B5026804461068D16853691F
:100D200010F00F0F50D003F0010501F49076354319
:100D30005DD0C20705D0CA0503D5E26B42F00102BF
:100D4000E263420705D5DA0703D0E26B42F0020204
:100D5000E263820705D5DA0703D0E26B42F00402B2
:100D6000E263020705D5DA0703D0E26B42F008021E
:100D7000E263E26B002A33D0800604D5880602D5F0
:100D8000204600F05FFB20684069E16BC0F38010F3
:100D9000090700D428B3204600F046FB20684169CB
:100DA00049061AD5416921F040014161606BA0B14B
:100DB0001B494163606BFFF7D1F9002810D0606BCD
:100DC000416BBDE870400847830610D58B060ED5F1
:100DD0002046BDE8704000F035BB2046FFF799FF84
:100DE00070BD2046FFF795FF0020E06370BD03064D
:100DF00006D50B0604D52046BDE8704000F026BCA1
:100E00004006F3D54806F1D5D168204621F04001CF
:100E1000D160202184F8391000F019F970BD00006C
:100E20001914000870B5040004D094F839000025A6
:100E300010B106E0012070BD84F83850204600F063
:100E400023F8242084F839002068C16821F4005177
:100E5000C160204600F042FB2068016921F4904106
:100E600001612068416921F02A0141612068C1685F
:100E700041F40051C160E563202084F8390084F812
:100E80003A00002070BD000010B50068154986B01A
:100E9000884225D11448816941F48041816180698B
:100EA000124C00F4804004904FF400700090022037
:100EB00001900320039069462046FFF7ADF9002119
:100EC0002015CDE90001029169462046FFF7A4F9FB
:100ED000002211462520FFF731FB2520FFF722FBDA
:100EE00006B010BD0038014000100240000801406B
:100EF00090F83A30202B22D1F9B1F2B190F8383085
:100F0000012B1CD081628285C2850021C16322220F
:100F100080F83A2080F838100168CA6842F480727C
:100F2000CA6001684A6942F001024A610068C1680A
:100F300041F02001C160002070470120704702206D
:100F40007047000010B50E480EA102780F4800F05F
:100F5000E9FB0E48FFF7E6F80C4982B26423A1F1E1
:100F6000400000F017F80022114609A000F0C2F876
:100F700006480122BDE8104001494038FFF7B8BFDC
:100F8000000000202D2D25632D2D0A007802002061
:100F9000686565002DE9F843044690F839001F465E
:100FA00016460D46202850D1A5B19EB194F83800C0
:100FB00001284AD0012084F838004FF00008C4F816
:100FC0003C80212084F83900FFF70AFAA684814684
:100FD000E68426E00120BDE8F883E08C401EE08432
:100FE000A0684B46B0F5805F4FF000024FF08001E3
:100FF0002046009703D000F05AFBE8B90DE000F05E
:1010000056FBC8B928882168C0F3080048602069E9
:1010100008B16D1C05E0AD1C03E0216815F8010B5B
:101020004860E08C0028D8D14B4600224021204661
:10103000009700F03CFB08B10320CCE7202084F8A7
:10104000390084F838800020C5E70220C3E77047E4
:10105000FEE700002DE9F0410024074E25464FF43D
:10106000FC770121002000F0B7F83555641CBC4224
:10107000F7DBBDE8F08100001400002010B50C463D
:1010800040F08000002100F0A7F844F04000BDE8E7
:101090001040002100F0A0B810B5154C0022A18826
:1010A0002068FFF797F9A18801222068FFF792F9DD
:1010B0000021212000F090F80021B82000F08CF8E9
:1010C0000021042000F088F80021142000F084F8AA
:1010D0000021202000F080F800210C2000F07CF896
:1010E000FFF7B8FFA4F5FE71002081F8F80110BDEC
:1010F0001002002010B50B46044611461846FFF7B3
:10110000BDFF02E0641C00F005F820780028F9D14A
:1011100010BD000070B50D490B4E00EB40000024DF
:1011200001EB400596F8F801012805EB040010F8E2
:10113000C00C01D1C043C0B2012100F04DF8641CC5
:10114000062CEFDB70BD000014000020141900080D
:101150002DE9F0410025104C07460126C5F1070195
:1011600006FA01F0384201D0012200E00022A18BF2
:10117000A069FFF72FF9A18C0122206AFFF72AF955
:10118000A18C0022206AFFF725F96D1CEDB2082D15
:10119000E4D3BDE8F081000010020020014A906015
:1011A0009181704710020020014A106291847047BB
:1011B00010020020014A1061918270471002002045
:1011C000014A90619183704710020020014A10602B
:1011D000918070471002002070B50C4C0A00054643
:1011E000A18A206900D00122FFF7F4F8A18900222A
:1011F000A068FFF7EFF82846FFF7AAFFA189A068CB
:10120000BDE870400122FFF7E5B8000010020020A1
:101210002DE9F041284886B0816941F010018161D3
:10122000816901F010010491816941F0200181611F
:10123000816901F020010491816941F0040181611B
:1012400080691E4F00F004004FF400540490002207
:1012500021463846FFF7BEF8DFF8648000221B21E4
:101260004046FFF7B7F80125CDE9004500240326E5
:10127000CDE9024669463846FEF7CEFFCDE9006566
:10128000CDE9024669464046FEF7C6FF0420CDE997
:101290000004694640460294FEF7BEFF1820CDE9DF
:1012A00000050220CDE9024069464046FEF7B4FF42
:1012B00006B0BDE8F08100000010024000100140BF
:1012C00000080140FEE770470907090E002806DA0A
:1012D00000F00F0000F1E02080F8141D704700F1CD
:1012E000E02080F80014704770477047FFF721BC7A
:1012F00030B58FB001210804CDE90010002402941C
:1013000002250491CDE907504FF4E010099068469A
:10131000FFF76CFA00B1FEE70F20CDE90A054FF4A4
:101320008060CDE90C4002210AA80E94FFF738F93D
:1013300000B1FEE7FFF7FEF94FF47A71B0FBF1F070
:10134000FFF7E3FB0420FFF7D3FB00221146501EFA
:10135000FFF7F4F80FB030BD0D48016841F001010E
:10136000016041680B4A1140416001680A4A11401E
:101370000160016821F480210160416821F4FE01CF
:1013800041604FF41F0181600449C0030860704749
:10139000001002400000FFF8FFFFF6FE08ED00E03D
:1013A0000148FFF7F5BB000098020020F0B5026885
:1013B000164B174C174D4FF08047984205D0B84256
:1013C00003D0A04201D0A84203D122F070064A689F
:1013D0003243984205D0B84203D0A04201D0A8427F
:1013E00003D122F44074CA68224322F080044A697F
:1013F000224302608A68C2620A688262984201D10E
:101400000969016301214161F0BD0000002C014028
:10141000000400400008004010B5406A0021C1856A
:10142000C184FFF776FC10BD0168CA6822F490728F
:10143000CA6001684A6922F001024A61202180F8ED
:101440003A10704710B590F83A10222901D00220C6
:1014500010BD8168B1F5805F11D001690029016874
:101460001FD0496801F07F03816A4A1C82620B70B9
:10147000C18D491E0904090CC18518D02BE00269F1
:10148000816A002A0268526805D0D2B20A80816A55
:10149000491C8162ECE7C2F308020A80816A891C58
:1014A000F7E74A68816A4B1C83620A70E0E70168CB
:1014B000CA6822F02002CA600168CA6822F48072F9
:1014C000CA6001684A6922F001024A61202180F85D
:1014D0003A10FFF737FD002010BD00002DE9F04164
:1014E000044600680169E26821F44051114301613A
:1014F0002169A0680843616908432168CA6841F20C
:101500000C639A430243CA6020684169A26921F4CE
:101510004071114341614C4920686425322688425C
:101520003CD1FFF71DF900EBC00101EB0010616831
:101530008900B0FBF1F7FFF713F900EBC00101EBF5
:1015400000106168B0468900B0FBF1F0B0FBF5F027
:101550006FF01801484307EB800106EB0110B0FB68
:10156000F5F000F0F006FFF7FBF800EBC00101EB2F
:10157000001061688900B0FBF1F0B0FBF5F006EBFC
:101580000016FFF7EDF800EBC00101EB00106168F9
:101590008900B0FBF1F7FFF7E3F83BE0FFF7D0F885
:1015A00000EBC00101EB001061688900B0FBF1F7AE
:1015B000FFF7C6F800EBC00101EB00106168B04610
:1015C0008900B0FBF1F0B0FBF5F06FF01801484373
:1015D00007EB800106EB0110B0FBF5F000F0F00620
:1015E000FFF7AEF800EBC00101EB00106168890065
:1015F000B0FBF1F0B0FBF5F006EB0016FFF7A0F83A
:1016000000EBC00101EB001061688900B0FBF1F74D
:10161000FFF796F800EBC00101EB0010616889004C
:10162000B0FBF1F0B0FBF5F06FF01801484307EBA9
:10163000800108EB0110B0FBF5F0216800F00F000D
:1016400030448860BDE8F0810038014090F83910DE
:10165000212901D0022070478168B1F5805F016ABD
:101660000BD04A1C0262026809785160C18C491E85
:101670000904090CC1840ED017E009880268C1F37F
:101680000801516001690029016A02D0491C016208
:10169000ECE7891CFBE70168CA6822F08002CA6097
:1016A0000068C16841F04001C160002070472DE929
:1016B000F041984617460E460446069D1DE0681CFC
:1016C0001BD02DB1FEF78CFEA0EB0800A84214D968
:1016D0002068C16821F4D071C1602068416921F09F
:1016E00001014161202084F8390084F83A0000208B
:1016F00084F838000320BDE8F0812068006836EAED
:10170000000004D00020B842D9D00020F3E7012027
:10171000F9E700000148FFF7FDBA00003802002099
:10172000FEE700000FB4084B10B504A902AA039805
:1017300000F01BF8044602A9002000F081F82046C2
:1017400010BC5DF814FB00004118000802E008C856
:10175000121F08C1002AFAD170477047002001E02B
:1017600001C1121F002AFBD170472DE9F84F99469D
:10177000924688460546002706E025280AD05146AD
:101780004A4690476D1C7F1C28780028F5D13846C2
:10179000BDE8F88F002315F8011F18462E2915D132
:1017A00015F8011F04232A290DD06FF02F02297884
:1017B000A1F13004092C09D800EB800002EB4000B5
:1017C00008446D1CF3E758F8040B6D1C2A78002AB6
:1017D000DDD0632A07D0732A0FD0104651464A46FF
:1017E00090477F1C2AE018F8042B8DF80020002178
:1017F0008DF801106E46012103E058F8046B4FF09C
:10180000FF315A074FF0000401D409E0641C844200
:101810000BDA8C42FADB325D002AF7D105E0641C5A
:101820008C42FCDB305D0028F9D1274404E016F837
:10183000010B51464A469047641EF8D26D1CA3E73F
:101840000A68531C0B60107070470000FEF7D6FD4D
:10185000FFF74EFDFFF7DCFC2A4829490C22016006
:101860004FF4E131416000218160C160C0E90412A0
:101870008161C161FFF7D6FA00B1FEE7224C4FF457
:101880000055002229462046FEF7A4FD4FF47A7643
:101890003046FEF7AFFC012229462046FEF79AFDAE
:1018A0003046FEF7A7FC012218491648FFF720FB37
:1018B000174E01213046FFF789FC02213046FFF721
:1018C0006DFC04213046FFF775FC08213046FFF718
:1018D00077FC10213046FFF767FCFFF7DDFB0022A5
:1018E00029462046FEF776FD6420FEF783FC0122A0
:1018F00029462046FEF76EFD6420FEF77BFCEEE7EE
:101900000038014038020020001001400000002093
:10191000000801400000000000000000005F00001F
:1019200000000700070000147F147F1400242A7FA2
:101930002A12002313086462003649552250000021
:101940000503000000001C224100000041221C0091
:101950000014083E08140008083E08080000503033
:10196000000000080808080800006060000000206F
:1019700010080402003E5149453E0000427F4000ED
:10198000004261514946002141454B310018141273
:101990007F10002745454539003C4A494930000140
:1019A0007109050300364949493600064949291E8F
:1019B00000003636000000005636000000081422F1
:1019C00041000014141414140000412214080002F1
:1019D0000151090600324979413E007E1111117E04
:1019E000007F49494936003E41414122007F414143
:1019F000221C007F49494941007F09090901003E35
:101A00004149497A007F0808087F0000417F410072
:101A1000002040413F01007F08142241007F4040E8
:101A20004040007F020C027F007F0408107F003ED0
:101A30004141413E007F09090906003E4151215EB6
:101A4000007F091929460046494949310001017FB3
:101A50000101003F4040403F001F2040201F003F49
:101A60004038403F006314081463000708700807FB
:101A700000615149454300007F41410000020408D4
:101A80001020000041417F000004020102040040D8
:101A900040404040000001020400002054545478AB
:101AA000007F4844443800384444442000384444CB
:101AB000487F00385454541800087E090102000C75
:101AC0005252523E007F080404780000447D4000DA
:101AD000002040443D00007F102844000000417F6A
:101AE0004000007C04180478007C08040478003866
:101AF00044444438007C1414140800081414187C5E
:101B0000007C0804040800485454542000043F4456
:101B10004020003C4040207C001C2040201C003C19
:101B20004030403C004428102844000C5050503CA9
:101B3000004464544C440000083641000000007F1B
:101B40000000000041360800001008081008007866
:101B50004641467800000000000000000102030436
:101B60000607080900000000010203048C1B00089E
:101B700000000020140000004C170008A01B000803
:101B800014000020C40600005C17000800000000DC
:101B900001000000100000000000000000A24A0444
:04000005080000ED02
:00000001FF
