:020000040800F2
:10000000B81200209901000883130008E5120008C7
:1000100081130008A70200086D1800080000000006
:1000200000000000000000000000000001010008C6
:10003000DF0200080000000045010008A9140008C4
:10004000B3010008B3010008B3010008B3010008C0
:10005000B3010008B3010008B3010008B3010008B0
:10006000B3010008B3010008B3010008B3010008A0
:10007000B3010008B3010008B3010008A902000899
:10008000B3010008B3010008B3010008B301000880
:10009000B3010008B3010008B3010008B301000870
:1000A000B3010008B3010008B3010008B301000860
:1000B000B3010008B301000861150008B30100088E
:1000C000B3010008B3010008B3010008B301000840
:1000D000B3010008B3010008B3010008B301000830
:1000E000B3010008B3010008B3010008DFF80CD029
:1000F00000F0B8F800480047851B0008B81200203F
:10010000224B19680868B0E8F00F80F30988BFF344
:100110006F8F4FF0000080F311884EF00D0E704786
:100120000000000006480068006880F3088862B696
:1001300061B6BFF34F8FBFF36F8F00DF00BF00BF0B
:1001400008ED00E0EFF30980BFF36F8F0F4B1A68E3
:1001500020E9F00F106008B54FF0500080F31188CF
:10016000BFF34F8FBFF36F8F02F0FCF84FF000002A
:1001700080F31188BDE8084019680868B0E8F00FFE
:1001800080F30988BFF36F8F704700BF48000020DD
:10019000EFF3058070470000064880470648004797
:1001A000FEE7FEE7FEE7FEE7FEE7FEE7FEE7FEE727
:1001B000FEE7FEE719150008ED000008202A04DB21
:1001C000203A21FA02F00021704721FA02F3D040D0
:1001D000C2F12002914008431946704740EA0103EA
:1001E0009B0703D009E008C9121F08C0042AFAD2ED
:1001F00003E011F8013B00F8013B521EF9D27047B1
:100200002DE9F05F0546002092469B46884606464B
:10021000814640241BE02846414647462246FFF7D8
:10022000CDFF53465A46C01A914110D31146184685
:10023000224600F029F82D1A67EB01084F462246A6
:100240000120002100F020F817EB00094E41201E8C
:10025000A4F10104DFDC484631462A464346BDE8A6
:10026000F09F0000064C074D06E0E06840F00103F7
:1002700094E8070098471034AC42F6D3FFF73AFFF2
:10028000D0260008F0260008202A04DB203A00FAD5
:1002900002F1002070479140C2F1200320FA03F3DD
:1002A000194390407047FEE7014800F019B800007C
:1002B0004401002030B590F840500124AC40C56B9B
:1002C0006C60046863604368102B036803D0996016
:1002D0000068C26030BD9A600068C16030BD704780
:1002E0002DE9F05FC16B0C6801680B68D0F840C065
:1002F000042202FA0CF2494DDFF824A1494E4A4F7C
:10030000DFF828B1DFF828E122422CD05A072AD59D
:100310000A68920603D40A6822F004020A6001689F
:10032000A94201D1042219E0514501D1402215E032
:10033000B14202D14FF4806210E0B94202D14FF4D1
:1003400080420BE0594502D14FF4802206E071450E
:1003500002D14FF4800201E04FF080622F4908394A
:100360004A60C16A3BE04FF0020808FA0CF818EA4C
:10037000040F4FF000094FF0010235D05FEA837897
:1003800032D50B689B0605D40B6823F00A030B607B
:1003900080F821200168A94201D1022219E05145CB
:1003A00001D1202215E0B14202D14FF4007210E0D9
:1003B000B94202D14FF400520BE0594502D14FF43B
:1003C000003206E0714502D14FF4001201E04FF017
:1003D0000072124908394A6080F82090816A002929
:1003E0001AD0BDE8F05F0847082505FA0CF525424C
:1003F00012D01B0710D50B6823F00E030B6090F88A
:100400004010C36B02FA01F15960826380F8212029
:1004100080F82090016BE2E7BDE8F09F0800024001
:100420001C000240300002404400024058000240DC
:100430006C00024030B548B308C81549142219446D
:10044000B1FBF2F18900C163124981630221417756
:100450001A6843F6F0718A43D0E900142143D0E9C9
:1004600002452C43214304692143446921438469A3
:10047000214311431960002141628162C16201631D
:100480004163012242770177084630BD012030BD2B
:10049000F8FFFDBF0000024070B5044690F8200050
:1004A000002501280CD0012084F8200094F8216058
:1004B0000020012E06D084F820000225284670BDB9
:1004C000022070BD022684F82160A06320680668BF
:1004D00026F0010606602046FFF7ECFEE06A0028E1
:1004E0002068016802D041F00E0106E021F004010D
:1004F00001602068016841F00A010160206801681C
:1005000041F001010160D9E770B5044600F0F2F84E
:100510000546601C02D004480078044400F0EAF864
:10052000401BA042FAD370BD140000202DE9F84F03
:10053000DFF890A100220AF1040B144601274FF0C6
:100540000F090BF1040E00BF0B6807FA04F52B40EE
:10055000AB4274D1DFF870C14E68A6EB0C0866455B
:100560002BD00DDC032E34D005DC36B3012E19D090
:10057000022E2FD11BE0112E16D0122E2AD119E0F7
:10058000B8F5881F19D006DCB8F5803F15D0B8F54E
:10059000801F1FD111E0B8F5001F0ED0B8F5041F61
:1005A00018D10AE0CA6815E0CA68121D12E0CA68CC
:1005B00008320FE0CA680C320CE08A682AB1012ABE
:1005C0004FF0080203D0456104E0042202E0056117
:1005D00000E00022FF2B01D8064601E000F10406EE
:1005E0004FEA840501D9A5F12005D6F800C009FA23
:1005F00005F82CEA080C02FA05F54CEA050CC6F8D9
:1006000000C04D68ED0057D5304DAE6946F001068B
:10061000AE61AD6924F0030605F0010500952C4D8F
:1006200006EB050CDCF80850A6074FEA167809FA25
:1006300008F6B543274EB04202D1002610E03BE059
:10064000254EB04201D101260AE0244EB04201D12C
:10065000022605E0224EB04201D1032600E0042626
:1006600006FA08F62E43CCF808604D68DAF8006008
:10067000ED03554601D51E4300E09E432E604D68B4
:10068000DBF80060AD035D4601D51E4300E09E43EC
:100690002E604D68DEF80060ED02754601D51E4300
:1006A00000E09E432E604D68AD020E4D2E6801D5D0
:1006B0001E4300E09E432E60641C102CFFF444AFE8
:1006C000BDE8F88F00040140000011100010024046
:1006D0000000014000080140000C014000100140F2
:1006E000001401400C0401400AB101617047090483
:1006F000FBE70000014880687047000014000020FC
:10070000024881680278114481607047140000201B
:10071000074810B5016841F010010160032000F0A6
:10072000B7F8002000F006F800F03EF8002010BDF9
:100730000020024000B5014687B000221E2000F0D4
:1007400087F81E2000F078F81348C16941F00401D1
:10075000C161C06905A900F004000690684600F078
:1007600053F900F077F90D494000B0FBF1F10D4865
:100770000B4A491E0260416040F2E7320021C0E9A5
:100780000321816000F060FB10B1012007B000BDC3
:10079000044800F075FBF9E70010024040420F00EA
:1007A0000008004088010020214808B5816941F017
:1007B00001018161816901F001010091C16941F08C
:1007C0008051C161C06900F080500090032000F0AA
:1007D0005FF8002211466FF00B0000F039F800229C
:1007E00011466FF00A0000F033F8002211466FF056
:1007F000090000F02DF800221146501F00F028F8E3
:1008000000221146101F00F023F800220F21901E35
:1008100000F01EF800220F21501E00F019F80548C4
:10082000416821F0E06141F00071416008BD0000C5
:10083000001002400000014000F01F020121914021
:100840004009800000F1E020C0F80011704700006E
:10085000F0B40E4B1B680C46C3F30223C3F107052B
:10086000042D00D90425191D072901D2002300E019
:10087000DB1E012606FA05F1491E214099409E40E3
:10088000761E16403143F0BC00F07CBD0CED00E05C
:10089000064900F0070208684FF6FF03184040EAD7
:1008A0000220034A10430860704700000CED00E08E
:1008B0000000FA052DE9F047DFF83C8105460E46B9
:1008C000D8F8000000F00700B0420CD2D8F80010B1
:1008D00021F007013143C8F80010D8F8000000F0FB
:1008E0000700B04263D12878444C800705D5606882
:1008F000A96820F0F000084360602878C00745D060
:100900006868012816D02168022816D089070029B6
:100910004DDA616821F0030101436160FFF7EAFEEF
:100920006968074641F2883001290FD002298146C3
:1009300019D027E021688903E9E78901E7E700BFCB
:10094000FFF7D8FEC11B494501D918E08146606810
:10095000C0F381000128F3D118E000BFFFF7CAFE01
:10096000C11B49450BD86068C0F381000228F5D14E
:100970000CE000BFFFF7BEFEC11B494502D90320B2
:10098000BDE8F087606810F00C0FF3D1D8F80010C4
:10099000404601F00701B1420BD9016821F007017F
:1009A00031430160006800F00700B04201D001202F
:1009B000E6E72878400705D56068E96820F4E0603C
:1009C000084360602878000706D56068296920F42C
:1009D000605040EAC100606000F05CF86168084A5D
:1009E000C1F30311515CC840064908600020FFF7BD
:1009F000A1FE0020C4E700000020024000100240D9
:100A00009C260008200000200F2202600C4A536838
:100A100003F003034360536803F0F00383605368FB
:100A200003F4E063C36052684FF4E06303EAD20268
:100A300002610448006800F0070008607047000089
:100A4000001002400020024001480068704700008A
:100A5000200000200448054900684968044AC1F3A1
:100A60000221515CC8407047200000200010024065
:100A7000AC2600080448054900684968044AC1F3E7
:100A8000C221515CC8407047200000200010024085
:100A9000AC26000812A185B00FC98DE80F0014A084
:100AA000144A006804905168134801F00C03042BA9
:100AB00010D0082B0ED1C1F38343C9031DF80300E6
:100AC0000AD5516804AAC1F34041515C0A4A504317
:100AD000B0FBF1F005B0704708494843FAE7000061
:100AE00002030405060708090A0B0C0D0E0F10106F
:100AF000010200000010024000127A0000093D00CF
:100B00002DE9F84F04460078B94DC00748D0686811
:100B1000C0F38100012807D06868C0F38100022873
:100B200009D16868C00306D52868800338D5606895
:100B300000286FD034E06068B0F5803F0BD010B172
:100B4000B0F5A02F11D0286820F4803028602868E4
:100B500020F4802002E0286840F48030286060683B
:100B600088B1FFF7C7FD064609E0286840F48020F9
:100B70002860F0E7FFF7BEFD801B642875D8286861
:100B80008003F7D50CE0FFF7B5FD064605E000BF92
:100B9000FFF7B0FD801B6428F0D828688003F7D4E5
:100BA0002078944E80074FF001094FF000083BD5A4
:100BB000686810F00C0F07D06868C0F38100022845
:100BC00009D16868C00306D42868800714D5206955
:100BD00001281FD110E02069B0B1C6F80090FFF7DE
:100BE00089FD074605E000BFFFF784FDC01B022812
:100BF000C4D828688007F7D52868616920F0F80014
:100C000040EAC10028600FE0C6F80080FFF772FDDF
:100C1000074606E0E9E000BFFFF76CFDC01B0228B5
:100C200023D828688007F7D4207800072CD572488D
:100C3000A169D9B1C0F80090FFF75CFD074604E058
:100C4000FFF758FDC01B02280FD8686A8007F7D548
:100C50006A484FF4FA510068B0FBF1F0009000BF11
:100C60000098411E0091FAD20EE080E0C0F80080AA
:100C7000FFF740FD074604E0FFF73CFDC01B0228DC
:100C800075D8686A8007F7D42078400760D5E8698E
:100C90000027C00008D4E86940F08050E861E869A6
:100CA000012700F08050009055480168C90513D411
:100CB0000168834641F480710160FFF71BFD8246A5
:100CC00006E000BFFFF716FDA0EB0A0064284ED82F
:100CD000DBF80000C005F5D5E06801280AD008B1AE
:100CE000052813D0286A20F001002862286A20F025
:100CF000040002E0286A40F001002862E06841F246
:100D0000883B98B1FFF7F6FC82460BE0286A40F07A
:100D100004002862EEE700BFFFF7ECFCA0EB0A013D
:100D200059455AD8286A8007F6D50CE0FFF7E2FC4F
:100D3000824605E0FFF7DEFCA0EB0A0159454CD8DE
:100D4000286A8007F6D41FB1E86920F08050E86176
:100D5000E06988B36968C1F38101022945D002289E
:100D6000C6F8608004D0FFF7C5FC044638E034E0E4
:100D7000FFF7C0FC074604E0FFF7BCFCC01B0228DD
:100D80002BD828688001F7D4206AB0F5803F05D1C0
:100D90006868A16820F4003008436860D4E908015D
:100DA0000843696821F4741108436860C6F86090CC
:100DB000FFF7A0FC044606E015E000BFFFF79AFC31
:100DC000001B022809D828688001F7D50BE000BF76
:100DD000FFF790FC001B022802D90320BDE8F88F22
:100DE00028688001F4D40020F8E70120F6E700002D
:100DF00000100240000042428004424220000020D5
:100E0000007000404FF0E0210428086903D020F072
:100E100004000861704740F00400FAE710B5401E76
:100E2000B0F1807F01D3012010BD4FF0E02460615C
:100E30000F21601700F0A6FA0020A06107202061B2
:100E4000002010BD7047704710B5040003D094F81F
:100E50003D0010B107E0012010BD002084F83C00E7
:100E6000204600F00CF8022084F83D00211D206887
:100E700000F07CFB012084F83D00002010BD70478D
:100E80000168CA6842F00102CA600068016841F066
:100E90000101016000207047704770B5044600688A
:100EA00001694FF00005C943890715D4C168C943DA
:100EB000890711D4E91E016101202077206880692B
:100EC0008007204602D0FFF7E7FF04E000F098F823
:100ED000204600F096F8257720680169C943490744
:100EE00017D4C168C943490713D46FF004010161E5
:100EF000022020772068806910F4407F204602D0CD
:100F0000FFF7CAFF04E000F07BF8204600F079F814
:100F1000257720680169C943090716D4C168C94308
:100F2000090712D46FF008010161042020772068BE
:100F3000C0698007204602D0FFF7AEFF04E000F052
:100F40005FF8204600F05DF8257720680169C94305
:100F5000C90617D4C168C943C90613D46FF010017C
:100F60000161082020772068C06910F4407F204686
:100F700002D0FFF791FF04E000F042F8204600F0B5
:100F800040F8257720680169C943C90708D1C168BD
:100F9000C943C90704D1891E0161204600F032F817
:100FA00020680169C943090609D4C168C943090613
:100FB00005D46FF0800101612046FFF743FF2068F0
:100FC0000169C943490609D4C168C943490605D422
:100FD0006FF040010161204600F01EF820680169B1
:100FE000C94389060BD4C168C943890607D46FF089
:100FF000200101612046BDE87040FFF724BF70BDAD
:101000007047704700680349884201D1FFF778BBF9
:1010100070470000000800407047704770B504003A
:1010200004D094F83900002510B106E0012070BD0D
:1010300084F83850204600F023F8242084F8390042
:101040002068C16821F40051C160204600F024FBF3
:101050002068016921F4904101612068416921F013
:101060002A0141612068C16841F40051C160E56313
:10107000202084F8390084F83A00002070BD000078
:10108000F0B5064603682C482A4C002502210322AD
:10109000071585B0A34230D1836943F4804383614F
:1010A0008069264C00F4804004900802CDE90001DC
:1010B000039269462046FFF739FACDE90075694683
:1010C00020460295FFF732FA1E4C1D48C4E9000580
:1010D0008020C4E9025020202561C4E905500002A7
:1010E000E0612046FFF7A6F918B1862116A000F0AE
:1010F000BEFB7463666205B0F0BD1A4CA342FAD120
:10110000C36943F48023C361C069CDE9007100F471
:101110008020CDE90320144C69462046FFF706FAEB
:10112000E014CDE90005694620460295FFF7FEF977
:10113000E1E70000003801400010024000080140D3
:1011400058000240440100202E2E2F5372632F734B
:10115000746D3332663178785F68616C5F6D73707F
:101160002E63000000480040000C0140F8B5044622
:1011700090F83A0020283CD1C1B3BAB394F83800B3
:10118000012836D0012084F83800A162A28500250C
:10119000E563222084F83A00636B17489862636B1A
:1011A0001648D862636B16481863606B1346456334
:1011B0000846666B216802463046091DFFF76CF948
:1011C000206801684168009184F83850C16841F492
:1011D0008071C1602068416941F00101416120686E
:1011E000416941F0400141610020F8BDFFE7012065
:1011F000FBE70220F9E70000231600085F1600084D
:10120000D9150008064A002002F12E01135C0B5488
:10121000401C1028FADB03490120087070470000C9
:10122000040100200000002070472DE9F843044627
:1012300090F839001F4616460D46202850D1A5B11A
:101240009EB194F8380001284AD0012084F8380073
:101250004FF00008C4F83C80212084F83900FFF7E3
:1012600049FAA6848146E68426E00120BDE8F88399
:10127000E08C401EE084A0684B46B0F5805F4FF0E4
:1012800000024FF080012046009703D000F0BCFA26
:10129000E8B90DE000F0B8FAC8B928882168C0F3B1
:1012A00008004860206908B16D1C05E0AD1C03E032
:1012B000216815F8010B4860E08C0028D8D14B4616
:1012C000002240212046009700F09EFA08B103203A
:1012D000CCE7202084F8390084F838800020C5E766
:1012E0000220C3E7FEE70000F0B5224885B081691F
:1012F00041F010018161816901F01001049181695F
:1013000041F020018161816901F02001049181692E
:1013100041F004018161816901F004010491816956
:1013200041F0080181618069134E00F008004FF41C
:1013300000540490002221463046FFF7D5F90F4FA4
:1013400000223F213846FFF7CFF900250220CDE9E2
:10135000025000940124694601943046FFF7E6F8F4
:101360003F208DE83100694638460394FFF7DEF8E8
:1013700005B0F0BD0010024000100140000801401F
:10138000FEE770470907090E002806DA00F00F0093
:1013900000F1E02080F8141D704700F1E02080F893
:1013A00000147047094E0A4D4FF40054706810B194
:1013B000012807D101E0012200E000222146284651
:1013C000FFF792F9642000F06BFCEFE700000020CB
:1013D00000100140154F164D00262878012820D115
:1013E000002412483A5D13A11E3800F041FA0F495B
:1013F00032231E391022A1F15000FFF716FF641CA2
:10140000102CEEDB09480CA11E3800F031FA074918
:1014100032231E391022A1F15000FFF706FF2E7073
:101420006E70012000F03CFCD7E700003201002084
:101430000000002025782D000A000000164F174DEF
:1014400000266878012822D1134815A11E3800F023
:101450000FFA11490A231E391022A1F15000FFF79B
:10146000E4FE0024385DE5280DD10B480DA11E389F
:101470006E6000F0FDF908490A231E391022A1F11F
:101480005000FFF7D2FE641C0D2CEBDB6E700A20BF
:1014900000F006FCD5E7000032010020000000202B
:1014A0006D6D00006E6E000000F006BC10B50121ED
:1014B00090B00804CDE90010420002920224049189
:1014C000CDE907404FF4501009906846FFF718FB2C
:1014D00000B1FEE70F20CDE90A0480200C90C00087
:1014E0000D9000200E9002210AA8FFF7E3F900B149
:1014F000FEE7FFF7A9FA4FF47A71B0FBF1F0FFF7BE
:101500008DFC0420FFF77EFC00220F21501EFFF708
:101510009FF910B010BD00000D48016841F00101B5
:10152000016041680B4A1140416001680A4A11405C
:101530000160016821F480210160416821F4FE010D
:1015400041604FF41F0181600449C0030860704787
:10155000001002400000FFF8FFFFF6FE08ED00E07B
:101560000148FFF79ABC000088010020F0B502682E
:10157000164B174C174D4FF08047984205D0B84294
:1015800003D0A04201D0A84203D122F070064A68DD
:101590003243984205D0B84203D0A04201D0A842BD
:1015A00003D122F44074CA68224322F080044A69BD
:1015B000224302608A68C2620A688262984201D14C
:1015C0000969016301214161F0BD0000002C014067
:1015D000000400400008004070B5446A206840697B
:1015E00094F83910C0F3C0100025212904D118B196
:1015F000E584204600F046F82068406994F83A10E7
:10160000C0F38010222904D118B1E585204600F0EE
:101610002BF8E06B40F01000E0632046FFF7FDFC84
:1016200070BD10B50146406A09680968890613D47F
:101630000021C1850168CA6822F48072CA6001680D
:101640004A6922F001024A6101684A6922F04002B7
:101650004A61202180F83A10FFF7D4FD10BD10B583
:10166000406AFFF7E1FD10BD0168CA6822F490727C
:10167000CA6001684A6922F001024A61202180F8AB
:101680003A1070470168CA6822F0C002CA6020217F
:1016900080F83910704700002DE9F04104460068D9
:1016A0000169E26821F44051114301612169A06898
:1016B0000843616908432168CA6841F20C639A4390
:1016C0000243CA6020684169A26921F44071114354
:1016D00041614C4920686425322688423CD1FFF79D
:1016E000C9F900EBC00101EB001061688900B0FB93
:1016F000F1F7FFF7BFF900EBC00101EB00106168E3
:10170000B0468900B0FBF1F0B0FBF5F06FF01801C6
:10171000484307EB800106EB0110B0FBF5F000F049
:10172000F006FFF7A7F900EBC00101EB00106168BC
:101730008900B0FBF1F0B0FBF5F006EB0016FFF707
:1017400099F900EBC00101EB001061688900B0FB62
:10175000F1F7FFF78FF93BE0FFF77CF900EBC001F1
:1017600001EB001061688900B0FBF1F7FFF772F937
:1017700000EBC00101EB00106168B0468900B0FBCE
:10178000F1F0B0FBF5F06FF01801484307EB800172
:1017900006EB0110B0FBF5F000F0F006FFF75AF988
:1017A00000EBC00101EB001061688900B0FBF1F0B3
:1017B000B0FBF5F006EB0016FFF74CF900EBC001AB
:1017C00001EB001061688900B0FBF1F7FFF742F907
:1017D00000EBC00101EB001061688900B0FBF1F083
:1017E000B0FBF5F06FF01801484307EB800108EB00
:1017F0000110B0FBF5F0216800F00F003044886064
:10180000BDE8F081003801402DE9F04198461746C7
:101810000E460446069D1DE0681C1BD02DB1FEF748
:1018200069FFA0EB0800A84214D92068C16821F420
:10183000D071C1602068416921F00101416120201F
:1018400084F8390084F83A00002084F83800032036
:10185000BDE8F0812068006836EA000004D000206E
:10186000B842D9D00020F3E70120F9E7FEE7FEE710
:101870000FB4084B10B504A902AA039800F01CF895
:10188000044602A9002000F077F9204610BC5DF85C
:1018900014FB0000791B000802E008C8121F08C1F1
:1018A000002AFAD170477047002001E001C1121FE1
:1018B000002AFBD1704700002DE9FF4F8DB09B46F9
:1018C0000F460446002606E025280BD05A460F99FD
:1018D0009047641C761C20780028F5D111B0304662
:1018E000BDE8F08F0025A8460122984900E0054395
:1018F00014F8013F203B02FA03F00842F7D12078A8
:101900002E2817D114F8010F45F004052A280ED00F
:101910006FF02F022078A0F1300109290AD808EBD6
:10192000880102EB410100EB0108641CF2E757F863
:10193000048B641C20786C280DD004DC4C2812D059
:101940006A2811D104E074280DD07A280CD10AE05D
:1019500045F4001507E0617845F48015814202D115
:10196000641C05F58015641C2278692A45D008DCC2
:10197000002AB3D0582A69D0632A10D0642A08D12B
:101980003BE0702A67D0732A13D0752A5CD0782A7E
:101990005CD010465A460F999047761CD3E017F852
:1019A000040B8DF8000000208DF80100E9460120AD
:1019B00003E057F8049B4FF0FF3069074FF0000534
:1019C00001D40AE06D1C45450DDA8542FADB19F8B1
:1019D00005100029F6D106E06D1C8542FCDB19F8E4
:1019E00005100029F8D12E4404E019F8010B5A46DD
:1019F0000F9990476D1EF8D2A5E00A200021CDE98D
:101A00000801C5F3025002280DD001CFC117031EF3
:101A100071F100030DDA4FF0000CD0EB0C006CEB11
:101A200001012D2308E0FF1D27F00707F7E8020159
:101A3000EDE72B0504D52B238DF8283001233BE05F
:101A4000EB0739D02023F7E70A2000E0102000211F
:101A5000CDE9080107E01020002145F00405CDE99B
:101A600008014FF00808C5F3025002280FD001CF3B
:101A700000214FF0000A2B071FD5702A0DD0DDE999
:101A800008C38CF0100C5CEA030C0CD015E0FF1DB1
:101A900027F00707F7E80201EBE740228DF828203E
:101AA0004FF0010A0BE050EA010306D030238DF815
:101AB00028308DF8292002239A46582A04D024A2DF
:101AC0000DF120090B9209E026A2F9E7DDE90823D0
:101AD000FEF796FB0B9B9B5C09F8013D50EA010267
:101AE000F4D1ADEB090020300890680701D44FF025
:101AF00001080899884502DDA8EB010000E00020FC
:101B00008046002506E00AA85A46405D0F99904796
:101B10006D1C761C5545F6DB04E030205A460F99C3
:101B20009047761CB8F10001A8F10108F5DC05E04A
:101B300019F8010B5A460F999047761C0899481ED0
:101B400008900029F4DC641CC5E6000009280100A7
:101B50003031323334353637383961626364656623
:101B600000000000303132333435363738394142E5
:101B700043444546000000000A68531C0B60107087
:101B80007047000090B0FEF7C3FDFFF78FFCFFF732
:101B9000ABFB3948416941F00101416140690022D4
:101BA00000F001000F9005210F20FEF751FE0F20DD
:101BB000FEF742FE32483149002401604FF425719E
:101BC000C0E901140C25C460C0E904458461C46106
:101BD000FFF724FA00B1FEE729482A4940300160A6
:101BE0004FF4E131C0E90114C460C0E904458461E7
:101BF000C461FFF713FA00B1FEE7234D4FF4005420
:101C0000002221462846FEF76FFD4FF47A763046D3
:101C1000FEF77AFC012221462846FEF765FD304694
:101C2000FEF772FC1649102280311548FFF79EFA24
:101C3000142216496846FEF7D1FA0021684600F0E2
:101C400045F8134C11491422A060143105A8FEF781
:101C5000C5FA002105A800F039F80C49E06014220B
:101C600028310AA8FEF7BAFA00210AA800F02EF8D7
:101C7000206100F01CF8FEE700100240003801402F
:101C80008400002000480040001001406026000849
:101C90000000002001460020842900D0C81C7047A5
:101CA00010B500B9012000F0FBFA002010BD10B5FE
:101CB00000F01CFB002010BD10B500F0FDFB01285A
:101CC00003D0BDE8104000F0B5BB10BD3EB50446E2
:101CD0000D46B0F90800FFF7DDFF02A9CDE90001CC
:101CE000208A2B4682B2D4E9001000F0B9FB01280B
:101CF00001D000203EBD02983EBD00002DE9F0411C
:101D0000184C0F460546E6682068001D00F012FAE0
:101D100038B9206890F82C1001208840216981434F
:101D20002161681C07D137B12168BDE8F0410E4838
:101D3000091D00F037BA20683544B5424560216876
:101D400005D2A06BBDE8F041091D00F013BA606B2D
:101D5000091D00F00FFAA06A854200D2A562BDE815
:101D6000F081000048000020A40E00202DE9F04181
:101D7000054600F023FA2E4CA068401CA0602068A5
:101D80002C4F10B1606940B32DE02560A068012898
:101D900029D1002606EB860007EB800000F0DCF975
:101DA000761C072EF6D323488C3000F0D5F9214855
:101DB000A03000F0D1F91F48B43000F0CDF91D4833
:101DC000C83000F0C9F91B48DC3000F0C5F91948EB
:101DD0008C3060631430A06305E02068E96AC06A53
:101DE000884200D82560606A401C6062E96A012070
:101DF000226988401043206101EB810007EB8000DD
:101E0000291D00F0CFF900F0F9F9606900280CD025
:101E10002068E96AC06A884207D207494FF08050BB
:101E20000860BFF34F8FBFF36F8FBDE8F0810000F4
:101E300048000020C80D002004ED00E070B5114EF0
:101E4000114C17E000F086FA3068B8B100F0A6FB3C
:101E500000F0B4F9F068C568281D00F06BF9A068BF
:101E6000401EA0606068401E606000F0C7F9284610
:101E700000F00CF860680028E4D170BD00F08EFB23
:101E8000F8E70000900E00204800002010B504463E
:101E9000006B00F0C7F92046BDE8104000F0C2B961
:101EA00010484FF44061420706D0C01D0D4920F094
:101EB0000700411AC1F540610B4A00230144C2E901
:101EC00000030839103A21F0070111604B600B60E4
:101ED0000B1AC0E9001393604FF000405360D060CC
:101EE00070470000C801002034000020074C4FF06C
:101EF0008056074DFFF7A2FF20680128FAD92E600F
:101F0000BFF34F8FBFF36F8FF4E70000C80D0020C1
:101F100004ED00E02DE9F0479A46DDE909848146A9
:101F20006FF00303206B03EB82021044089D20F046
:101F30000706700707D0502080F31188BFF34F8F3A
:101F4000BFF36F8FFEE723180A5C83F834200A5C26
:101F500012B1401C1028F6D3002784F84370072DD7
:101F600000D30625E562C4E91157201D00F0FFF8F3
:101F700004F1180000F0FBF82461C5F10700646269
:101F8000A061E76484F8507052464946304600F03C
:101F9000BFF82060B8F1000F01D0C8F80040BDE8DC
:101FA000F087000030B5114900E011460A6882420E
:101FB000FBD34B685C18844203D1406818444860E6
:101FC000084643681C18944209D1084C103C246808
:101FD000A24209D052681A4442600A68126802603C
:101FE000814200D0086030BD0460F9E73400002071
:101FF0000648416B096829B1416BC968C9684968DD
:10200000816270474FF0FF31FAE70000480000207E
:1020100008484068401C4FF0500080F3118804D0FD
:10202000BFF34F8FBFF36F8FFEE7BFF34F8FBFF349
:102030006F8FFEE73C0000202DE9F04105460027A8
:1020400000F088F9314E306808B9FFF729FFF068D1
:1020500005424BD1C5B3083568070ED005F007001F
:10206000C0F108000544680707D0502080F31188AC
:10207000BFF34F8FBFF36F8FFEE72DB370688542BC
:1020800034D82248103001460C6801E020460C4646
:102090006168A94202D221680029F7D131688C42D7
:1020A00024D007682168016060680837411B102947
:1020B0000FD96019420708D0502080F31188BFF370
:1020C0004F8FBFF36F8FFEE710E041606560FFF751
:1020D00069FF61687068401A7060B268904200D20F
:1020E000B060F06801430020C4E9000100F056FA36
:1020F000780707D0502080F31188BFF34F8FBFF3CC
:102100006F8FFEE73846BDE8F08100002400002014
:1021100010B5031F4FF080741C601B1F21F00101DC
:102120001960191F024B0B60143940380A6010BD4A
:1021300011200008D0E9013201699A60D0E9012339
:102140005A604A68824201D182684A600022026174
:102150000868401E0860704700F108014FF0FF3228
:10216000C0E90112C16001610021016070470021D6
:102170000161704730B50B685A1C02D000F10802AB
:1021800002E0026904E02246546825689D42FAD9BB
:1021900053684B6099608A60516008610168491C0E
:1021A000016030BD42684A6093688B6093685960F3
:1021B000916008610168491C01607047502080F3FC
:1021C0001188BFF34F8FBFF36F8F0A494868401CD7
:1021D000486001280CD10848006810F0FF0F07D0B4
:1021E000502080F31188BFF34F8FBFF36F8FFEE74E
:1021F000704700003C00002004ED00E008494868FA
:1022000028B1401E486001D180F3118870475020EA
:1022100080F31188BFF34F8FBFF36F8FFEE700008D
:102220003C00002070B5002827D0144DA0F1080410
:102230006168E868014207D1502080F31188BFF33C
:102240004F8FBFF36F8FFEE722683AB1502080F3C3
:102250001188BFF34F8FBFF36F8FFEE7814361603B
:1022600000F078F860686968084468602046FFF705
:1022700099FEBDE8704000F091B970BD24000020C7
:1022800006484FF47A710068B0FBF1F14FF0E0209E
:10229000491E4161072101617047000020000020B4
:1022A00010B5020014D00F48006B38B1502080F3F5
:1022B0001188BFF34F8FBFF36F8FFEE700F04AF82E
:1022C00000211046FFF71AFD00F068F9002807D139
:1022D00005494FF080500860BFF34F8FBFF36F8FF9
:1022E00010BD00004800002004ED00E01CB51548BA
:1022F0000024CDE900402346802213A1144800F0B9
:10230000AFF8012809D0401C1AD1502080F3118861
:10231000BFF34F8FBFF36F8FFEE7502080F311881C
:10232000BFF34F8FBFF36F8F06484FF0FF312C384C
:10233000816201214161C460BDE81C4000F040B8E9
:102340001CBD00007400002049444C450000000002
:10235000ED1E00080248016B491C01637047000034
:10236000480000201448016B11B10121C161704780
:102370000021C1610169B1FA81F1C1F11F0101EBD5
:1023800081020E4951F822306BB101EB820101F15B
:1023900008034A6852684A609A4201D152684A600A
:1023A000D16801607047502080F31188BFF34F8FD0
:1023B000BFF36F8FFEE7000048000020C80D00202B
:1023C0001CB5194908780190FF20087008788DF82D
:1023D00000009DF80000154A00F050001070072022
:1023E000906005E09DF800305B008DF80030401EE5
:1023F0009DF800301B06F5D4000200F4E060906008
:10240000019808700A48016841F470010160016890
:1024100041F070410160FFF733FF00205060FDF78D
:1024200081FE00201CBD000000E400E03C00002014
:1024300020ED00E010B5502080F31188BFF34F8FDE
:10244000BFF36F8F00F046F818B104494FF0805089
:102450000860002080F3118810BD000004ED00E04A
:102460002DE9FF5F8346DDE90E87994616468A46C9
:102470009000FFF7E1FD05001AD05420FFF7DCFDC6
:10248000040012D025630021CDE90241CDE9008787
:102490004B46324651465846FFF73CFD2046FFF773
:1024A00065FC012004B0BDE8F09F2846FFF7BAFEA6
:1024B0004FF0FF30F6E700000548416919B1006BA5
:1024C00018B10020704701207047022070470000BB
:1024D000480000202DE9F0412E4C0027206B40B130
:1024E000A069401CA061E06900B101273846BDE841
:1024F000F081E668761CE66013D1606B006838B145
:10250000502080F31188BFF34F8FBFF36F8FFEE72A
:10251000606BA16B6163A063206A401C2062FFF7BF
:1025200067FDA06ADFF87080864209D3606B00689F
:1025300080B1606BC068C568686886420DD2A062D1
:102540002068C06A00EB800158F821000128CAD930
:102550000127C8E74FF0FF30F1E7281DFFF7EAFD3C
:10256000A86A18B105F11800FFF7E4FDE86A012137
:10257000226981401143216100EB800108EB810059
:10258000291DFFF70FFEE86A2168C96A8842CDD38A
:102590000127CBE748000020C80D00202DE9F047B7
:1025A0002C4D00242746286B38B1FFF707FE286B17
:1025B000401E2863286B40B146E0502080F311880C
:1025C000BFF34F8FBFF36F8FFEE7A968224E012044
:1025D000D1B3A6F1B40980463068E8B1F068C468A8
:1025E00004F11800FFF7A6FD201DFFF7A3FDE06A28
:1025F0002A6908FA00F11143296100EB800109EB17
:102600008100211DFFF7CEFDE06A2968C96A884272
:10261000E2D3C5F81C80DFE70CB1FFF7E9FCAC6939
:1026200044B14646FFF756FF00B1EE61641EF9D192
:102630000020A861E86938B1084901273807086017
:10264000BFF34F8FBFF36F8FFFF7D8FD3846BDE85C
:10265000F0870000480000207C0E002004ED00E020
:10266000C4260008A51300080000000000000000B8
:1026700080000000B4260008D51300080200000006
:102680000000000080000000BC2600083D14000887
:1026900001000000000000008000000000000000B9
:1026A0000000000001020304060708090000000002
:1026B000010203045461736B310000005461736BB9
:1026C0003200000064656661756C745461736B0060
:1026D000F026000800000020840000009818000880
:1026E000742700088400002034120000A818000895
:1026F00000000000020000000000000000000000D8
:1027000000000000010000001000000000000000B8
:1027100000A24A04000000000000000000000000C9
:1027200000000000000000000000000000000000A9
:10273000AAAAAAAA000000000000000000000000F1
:102740000000000000000000000000000000000089
:102750000000000000000000000000000000000079
:102760000000000000000000000000000000000069
:042770000000000065
:04000005080000ED02
:00000001FF
