:020000040800F2
:100000009817002099010008731B0008C119000807
:10001000711B000841020008512400080000000084
:1000200000000000000000000000000001010008C6
:10003000910300080000000045010008351D00087C
:10004000B3010008B3010008B3010008B3010008C0
:10005000B3010008B3010008B3010008B3010008B0
:10006000B3010008B3010008B3010008B3010008A0
:10007000B3010008B3010008B3010008B301000890
:10008000B3010008B3010008B3010008B301000880
:10009000B3010008B3010008B3010008B301000870
:1000A000B3010008B3010008B3010008E91D00080E
:1000B000F51D0008B3010008011E0008B301000887
:1000C000B3010008B3010008B3010008B301000840
:1000D000B301000845240008B3010008B30100087B
:1000E000B3010008B3010008B3010008DFF80CD029
:1000F00000F094F8004800476D260008981700208B
:10010000224B19680868B0E8F00F80F30988BFF344
:100110006F8F4FF0000080F311884EF00D0E704786
:100120000000000006480068006880F3088862B696
:1001300061B6BFF34F8FBFF36F8F00DF00BF00BF0B
:1001400008ED00E0EFF30980BFF36F8F0F4B1A68E3
:1001500020E9F00F106008B54FF0500080F31188CF
:10016000BFF34F8FBFF36F8F03F0DAF94FF000004A
:1001700080F31188BDE8084019680868B0E8F00FFE
:1001800080F30988BFF36F8F704700BF50000020D5
:10019000EFF3058070470000064880470648004797
:1001A000FEE7FEE7FEE7FEE7FEE7FEE7FEE7FEE727
:1001B000FEE7FEE7A11D0008ED00000840EA01038C
:1001C0009B0703D009E008C9121F08C0042AFAD20D
:1001D00003E011F8013B00F8013B521EF9D27047D1
:1001E000421C10F8011B0029FBD1801A704730B562
:1001F0000B46014600202022012409E021FA02F5E5
:100200009D4205D303FA02F5491B04FA02F528447E
:10021000151EA2F10102F1DC30BD0000064C074DB5
:1002200006E0E06840F0010394E8070098471034C6
:10023000AC42F6D3FFF75EFF98410008B8410008D2
:10024000FEE7000070B546484178C9B301293AD1AC
:1002500000214170406902F023FB0021414800F079
:10026000CEFF04213F4800F0CAFF3E483EA1C03007
:1002700002F0F0F83B48C030FFF7B2FF394982B2D4
:10028000C0316423A1F1400001F03CFB374C012058
:1002900004EB40014A8834F81030D21A4A80801C9E
:1002A0004028F5D33F2020705FF0000004EB4001B0
:1002B0008A884A802178401C8142F7DC00251DE0B5
:1002C000FFE70121417070BDE80704EB450043885A
:1002D0002A4601D026A100E029A12248C03002F020
:1002E000B9F82048C030FFF77BFF1E4982B2C03109
:1002F0006423A1F1400001F005FB6D1C2078A842A9
:10030000E2DC002007E000BF04EB40018A884B8854
:100310001A448A80401C2178491E8142F4DC002561
:1003200019E0E80704EB450043882A4601D010A1F4
:1003300000E013A10B48C03002F08CF80948C0302F
:10034000FFF74EFF074982B2C0316423A1F140009C
:1003500001F0D8FA6D1C2078A842E2DC70BD0000E4
:1003600000000020A00000200A0A00004602002031
:100370002D25642D3A6C6F77202564200000000045
:100380002D25642D686967683A2564200A000000FD
:100390007047000010B590F821100024022903D006
:1003A0000421816301243DE001680A6822F00E0205
:1003B0000A6001680A6822F001020A601A4A0168AC
:1003C000914201D1012121E0174A1432914201D119
:1003D00010211BE0144A2832914201D1891515E001
:1003E000114A3C32914201D189140FE00E4A503239
:1003F000914202D14FF4803108E00B4A64329142BD
:1004000002D14FF4801101E04FF08071064A083AA2
:100410005160012180F82110002180F82010416BEB
:1004200001B18847204610BD0800024070B504465F
:1004300000F0F2F80546601C02D00448007804443D
:1004400000F0EAF8401BA042FAD370BD1C00002067
:100450002DE9F84FDFF890A100220AF1040B1446B1
:1004600001274FF00F090BF1040E00BF0B6807FACC
:1004700004F52B40AB4274D1DFF870C14E68A6EB97
:100480000C0866452BD00DDC032E34D005DC36B3CA
:10049000012E19D0022E2FD11BE0112E16D0122EB4
:1004A0002AD119E0B8F5881F19D006DCB8F5803FCD
:1004B00015D0B8F5801F1FD111E0B8F5001F0ED080
:1004C000B8F5041F18D10AE0CA6815E0CA68121D01
:1004D00012E0CA6808320FE0CA680C320CE08A6881
:1004E0002AB1012A4FF0080203D0456104E004223A
:1004F00002E0056100E00022FF2B01D8064601E082
:1005000000F104064FEA840501D9A5F12005D6F8CB
:1005100000C009FA05F82CEA080C02FA05F54CEAC5
:10052000050CC6F800C04D68ED0057D5304DAE69DA
:1005300046F00106AE61AD6924F0030605F0010541
:1005400000952C4D06EB050CDCF80850A6074FEA89
:10055000167809FA08F6B543274EB04202D10026B4
:1005600010E03BE0254EB04201D101260AE0244EC6
:10057000B04201D1022605E0224EB04201D103264D
:1005800000E0042606FA08F62E43CCF808604D6811
:10059000DAF80060ED03554601D51E4300E09E43A6
:1005A0002E604D68DBF80060AD035D4601D51E434B
:1005B00000E09E432E604D68DEF80060ED02754657
:1005C00001D51E4300E09E432E604D68AD020E4DE6
:1005D0002E6801D51E4300E09E432E60641C102C43
:1005E000FFF444AFBDE8F88F000401400000111093
:1005F000001002400000014000080140000C0140D2
:1006000000100140001401400C0401400AB10161D6
:1006100070470904FBE7000001488068704700004C
:100620001C000020024881680278114481607047F4
:100630001C000020074810B5016841F0100101605E
:10064000032000F0B7F8002000F006F800F03EF8B4
:10065000002010BD0020024000B5014687B00022F6
:100660001E2000F087F81E2000F078F81348C169BA
:1006700041F00401C161C06905A900F004000690C1
:10068000684600F053F900F077F90D494000B0FBDF
:10069000F1F10D480B4A491E0260416040F2E73219
:1006A0000021C0E90321816000F088FB10B1012026
:1006B00007B000BD044800F0D7FBF9E70010024086
:1006C00040420F0000080040C8020020214808B541
:1006D000816941F001018161816901F001010091AD
:1006E000C16941F08051C161C06900F08050009043
:1006F000032000F05FF8002211466FF00B0000F0BD
:1007000039F8002211466FF00A0000F033F8002299
:1007100011466FF0090000F02DF800221146501F1D
:1007200000F028F800221146101F00F023F80022E4
:100730000F21901E00F01EF800220F21501E00F025
:1007400019F80548416821F0E06141F0007141600D
:1007500008BD0000001002400000014000F01F0230
:10076000012191404009800000F1E020C0F8001113
:1007700070470000F0B40E4B1B680C46C3F3022315
:10078000C3F10705042D00D90425191D072901D23D
:10079000002300E0DB1E012606FA05F1491E214078
:1007A00099409E40761E16403143F0BC01F0E2B9FC
:1007B0000CED00E0064900F0070208684FF6FF0361
:1007C000184040EA0220034A1043086070470000C6
:1007D0000CED00E00000FA052DE9F047DFF83C8160
:1007E00005460E46D8F8000000F00700B0420CD2D3
:1007F000D8F8001021F007013143C8F80010D8F8EC
:10080000000000F00700B04263D12878444C800714
:1008100005D56068A96820F0F0000843606028787A
:10082000C00745D06868012816D02168022816D074
:10083000890700294DDA616821F0030101436160F5
:10084000FFF7EAFE6968074641F2883001290FD0B8
:100850000229814619D027E021688903E9E7890147
:10086000E7E700BFFFF7D8FEC11B494501D918E0F3
:1008700081466068C0F381000128F3D118E000BF11
:10088000FFF7CAFEC11B49450BD86068C0F3810061
:100890000228F5D10CE000BFFFF7BEFEC11B4945A1
:1008A00002D90320BDE8F087606810F00C0FF3D187
:1008B000D8F80010404601F00701B1420BD9016899
:1008C00021F0070131430160006800F00700B042E9
:1008D00001D00120E6E72878400705D56068E9687F
:1008E00020F4E060084360602878000706D560685F
:1008F000296920F4605040EAC100606000F05CF8B3
:100900006168084AC1F30311515CC8400649086098
:100910000020FFF7A1FE0020C4E7000000200240F5
:100920000010024068410008280000200F220260E9
:100930000C4A536803F003034360536803F0F00369
:100940008360536803F4E063C36052684FF4E0636C
:1009500003EAD20202610448006800F00700086060
:10096000704700000010024000200240014800686B
:1009700070470000280000200448054900684968C5
:10098000044AC1F30221515CC8407047280000208E
:100990000010024078410008044805490068496891
:1009A000044AC1F3C221515CC840704728000020AE
:1009B000001002407841000812A185B00FC98DE8EF
:1009C0000F0014A0144A006804905168134801F005
:1009D0000C03042B10D0082B0ED1C1F38343C903A1
:1009E0001DF803000AD5516804AAC1F34041515CC7
:1009F0000A4A5043B0FBF1F005B07047084948433C
:100A0000FAE7000002030405060708090A0B0C0DAB
:100A10000E0F1010010200000010024000127A00B8
:100A200000093D002DE9F84F04460078B94DC00794
:100A300048D06868C0F38100012807D06868C0F317
:100A40008100022809D16868C00306D528688003A0
:100A500038D5606800286FD034E06068B0F5803F1A
:100A60000BD010B1B0F5A02F11D0286820F4803041
:100A70002860286820F4802002E0286840F4803054
:100A80002860606888B1FFF7C7FD064609E028685E
:100A900040F480202860F0E7FFF7BEFD801B64284B
:100AA00075D828688003F7D50CE0FFF7B5FD06463A
:100AB00005E000BFFFF7B0FD801B6428F0D8286870
:100AC0008003F7D42078944E80074FF001094FF04F
:100AD00000083BD5686810F00C0F07D06868C0F3B9
:100AE0008100022809D16868C00306D428688007FD
:100AF00014D5206901281FD110E02069B0B1C6F8D3
:100B00000090FFF789FD074605E000BFFFF784FD71
:100B1000C01B0228C4D828688007F7D528686169F7
:100B200020F0F80040EAC10028600FE0C6F800801D
:100B3000FFF772FD074606E0E9E000BFFFF76CFD36
:100B4000C01B022823D828688007F7D42078000724
:100B50002CD57248A169D9B1C0F80090FFF75CFDAF
:100B6000074604E0FFF758FDC01B02280FD8686A4B
:100B70008007F7D56A484FF4FA510068B0FBF1F0EE
:100B8000009000BF0098411E0091FAD20EE080E074
:100B9000C0F80080FFF740FD074604E0FFF73CFD8A
:100BA000C01B022875D8686A8007F7D420784007F0
:100BB00060D5E8690027C00008D4E86940F080509B
:100BC000E861E869012700F080500090554801680D
:100BD000C90513D40168834641F480710160FFF7B1
:100BE0001BFD824606E000BFFFF716FDA0EB0A00E2
:100BF00064284ED8DBF80000C005F5D5E068012870
:100C00000AD008B1052813D0286A20F00100286214
:100C1000286A20F0040002E0286A40F001002862FF
:100C2000E06841F2883B98B1FFF7F6FC82460BE0A2
:100C3000286A40F004002862EEE700BFFFF7ECFCF2
:100C4000A0EB0A0159455AD8286A8007F6D50CE06E
:100C5000FFF7E2FC824605E0FFF7DEFCA0EB0A01AD
:100C600059454CD8286A8007F6D41FB1E86920F0AE
:100C70008050E861E06988B36968C1F381010229A5
:100C800045D00228C6F8608004D0FFF7C5FC0446B2
:100C900038E034E0FFF7C0FC074604E0FFF7BCFC97
:100CA000C01B02282BD828688001F7D4206AB0F531
:100CB000803F05D16868A16820F40030084368606F
:100CC000D4E908010843696821F474110843686095
:100CD000C6F86090FFF7A0FC044606E015E000BFF0
:100CE000FFF79AFC001B022809D828688001F7D575
:100CF0000BE000BFFFF790FC001B022802D9032085
:100D0000BDE8F88F28688001F4D40020F8E70120BE
:100D1000F6E7000000100240000042428004424218
:100D200028000020007000404FF0E02104280869EE
:100D300003D020F004000861704740F00400FAE797
:100D400010B5401EB0F1807F01D3012010BD4FF0DF
:100D5000E02460610F21601700F00CFF0020A0610B
:100D600007202061002010BD7047704730B590F813
:100D70003C20012A20D0012280F83C20022380F868
:100D80003D3003685C6824F070045C6003685C6854
:100D90000D682C435C6003689C6824F080049C60B0
:100DA00003689C6849680C439C6080F83D200021E2
:100DB00080F83C10084630BD022030BD10B504005C
:100DC00003D094F83D0010B107E0012010BD0020D1
:100DD00084F83C00204600F00DF8022084F83D0025
:100DE000211D206801F012F8012084F83D00002048
:100DF00010BD000000B5194A0168194885B091423C
:100E000017D1816941F4006181618069694600F40C
:100E1000006004905015009000200190029011484D
:100E2000FFF716FB002205211B20FFF7A3FC1B2068
:100E300010E0B1F1804F0FD1C16941F00101C161F2
:100E4000C069002200F00100049005211C20FFF77A
:100E500091FC1C20FFF782FC05B000BD002C014076
:100E600000100240000801400168CA6842F0010217
:100E7000CA600068016841F001010160002070470C
:100E800070B5044690F83C00012817D0012584F87D
:100E90003C50022084F83D002068826822F07702EE
:100EA00022F47F4282600868502837D00DDC202869
:100EB00059D005DC88B3102841D151E0022070BD23
:100EC000302853D040283AD13FE060282ED07028F7
:100ED0000BD0B0F5805F03D0B0F5005F2FD110E0EC
:100EE0002068816821F0070115E0CB68D1E9012174
:100EF000206800F0CCFF2168886840F077008860A7
:100F00001DE0CB68D1E90121206800F0C0FF206816
:100F1000816841F48041816011E01EE0CA6849683F
:100F2000206801F0A7F85021206806E0CA684968E7
:100F3000206801F0DDF86021206800F0B2FF84F83D
:100F40003D50002084F83C0070BDCA6849682068A4
:100F500001F090F840212068EFE700212068ECE7DD
:100F600010212068E9E720212068E6E73021206889
:100F7000E3E7000070B5314C05466168606901F037
:100F800061FC6078012857D1287F2D4C01281CD1A5
:100F90000021A4F5D37000F005FB217804EB41019A
:100FA0004880207827A1401C2070A4F1E60001F0C1
:100FB00051FAA4F1E600FFF713F982B2A4F1E601B9
:100FC0000A23A1F1400000F09DFC287F02281BD1DC
:100FD00004211D4800F0E6FA217804EB4101488025
:100FE00020781AA1401C20701748C03001F032FA56
:100FF0001548C030FFF7F4F8134982B2C0310A2314
:10100000A1F1400000F07EFC2078402814D9402057
:1010100020700D480EA1C03001F01CFA0A48C03003
:10102000FFF7DEF80849BDE87040642382B2C031A2
:10103000A1F1400000F066BC70BD0000000000207F
:101040004602002063000000A000002064000000B1
:101050006F76657220666C6F772073686F6400002E
:101060002DE9F041044690F83C000D4601283BD0A4
:10107000012684F83C60022084F83D009AB3042ADB
:1010800044D02068082A53D0D5E90027E968036ACC
:1010900023F480530362D0F81CC0036A2CF4407C14
:1010A0004CEA07274FF6FF7C27F470470CEA013122
:1010B0003943770323F4005307EA02321A43C1612C
:1010C00002622068C16921F44061C1612068C16980
:1010D000AA6841EA0221C16184F83D60002084F8D9
:1010E0003C00BDE8F08101E00220FAE7D5E90012FA
:1010F000EB68206800F0D0FF2068816921F00C01C6
:10110000816120688169AA6811430FE0D5E9001266
:10111000EB68206800F0FEFF2068816921F44061DF
:10112000816120688169AA6841EA02218161D3E76F
:10113000D5E9002C2F7B016A21F480710162C1691D
:10114000036A21F0030141EA0C0121F0F00C390798
:101150004FF420674CEA116123F4206307EA02226E
:101160001A43C16102622068C16921F00C01C161AA
:101170002068C169AA681143ADE710B5040003D027
:1011800094F83D0010B107E0012010BD002084F864
:101190003C00204600F00CF8022084F83D00211DA0
:1011A000206800F033FE012084F83D00002010BDCF
:1011B000704710B50268044631B1042908D00829E7
:1011C00015D00C2908D116E0D06840F0020002E0EA
:1011D000D06840F00400D0600122206800F04CFE8E
:1011E0002068016841F001010160002010BDD06855
:1011F00040F00800EFE7D06840F01000EBE710B5D2
:101200000268044631B1042908D008291ED00C29EF
:1012100008D11FE0D06820F0020002E0D06820F082
:101220000400D0600022206800F026FE2068016AD9
:1012300041F21112114207D1016A9210114203D1F9
:10124000016821F001010160002010BDD06820F08C
:101250000800E6E7D06820F01000E2E770B5044629
:10126000006801694FF00005C943890715D4C168BA
:10127000C943890711D4E91E016101202077206844
:1012800080698007204602D0FFF774FE04E000F07A
:10129000D7F8204600F07AF9257720680169C9431C
:1012A000490717D4C168C943490713D46FF0040133
:1012B0000161022020772068806910F4407F204679
:1012C00002D0FFF757FE04E000F0BAF8204600F025
:1012D0005DF9257720680169C943090716D4C168FB
:1012E000C943090712D46FF0080101610420207777
:1012F0002068C0698007204602D0FFF73BFE04E06B
:1013000000F09EF8204600F041F925772068016939
:10131000C943C90617D4C168C943C90613D46FF0BD
:1013200010010161082020772068C06910F4407F17
:10133000204602D0FFF71EFE04E000F081F82046B0
:1013400000F024F9257720680169C943C90708D14D
:10135000C168C943C90704D1891E0161204600F054
:1013600017F920680169C943090609D4C168C9434E
:10137000090605D46FF0800101612046FFF7F4FCF7
:1013800020680169C943490609D4C168C9434906AF
:1013900005D46FF040010161204600F046F9206855
:1013A0000169C94389060BD4C168C943890607D4BA
:1013B0006FF0200101612046BDE87040FFF7D5BC09
:1013C00070BD00001FB50068B0F1804F08D101204A
:1013D000009002200190039069460248FFF738F818
:1013E0001FBD00000008014070B5044690F83C00A5
:1013F00001280DD0012584F83C50022084F83D00DE
:1014000042B1042A0AD0082A0CD00C2A11D10DE0CE
:10141000022070BD206800F04DFD0AE0206800F059
:1014200071FD06E0206800F099FD02E0206800F000
:10143000C1FD84F83D50002084F83C0070BD0000E0
:1014400009498868401C8860084901EB40014988C7
:10145000074A12685163302805484FF0000101DD4A
:1014600000F054B800F022B800000020460200202E
:10147000E000002010B5040003D094F83D0010B146
:1014800007E0012010BD002084F83C00204600F059
:101490000CF8022084F83D00211D206800F0B6FC05
:1014A000012084F83D00002010BD704710B502688F
:1014B000044631B1042908D008291DD00C2908D1CF
:1014C0001EE0D06840F0020002E0D06840F0040066
:1014D000D0600122206800F0CFFC0B4920688842D0
:1014E00003D1416C41F4004141642068016841F03E
:1014F00001010160002010BDD06840F00800E7E75E
:10150000D06840F01000E3E7002C014010B50268FD
:10151000044631B1042908D008292CD00C2908D15F
:101520002DE0D06820F0020002E0D06820F0040036
:10153000D0600022206800F09FFC134B41F2111292
:1015400020689110984209D1036A134206D1036AB8
:101550000B4203D1436C23F4004343642068036AC5
:10156000134206D1026A0A4203D1016821F0010147
:101570000160002010BDD06820F00800D8E7D068D6
:1015800020F01000D4E70000002C0140704700005C
:1015900000680349884201D1FFF744B87047000052
:1015A0000008004090F83C300022012B0AD00123B3
:1015B00080F83C3041B1042909D008290AD00C290F
:1015C0000DD10AE00220704701684A6B07E001680C
:1015D0008A6B04E00168CA6B01E001680A6C0021B3
:1015E00080F83C101046704770B5044690F83C00F7
:1015F000012818D0012584F83C50022084F83D00D1
:10160000204600F0F9FC2068C16821F04001C1606B
:101610002068C16821F48041C16084F83D500020F9
:1016200084F83C0070BD022070BD70477047000018
:1016300070B5026804461068D168536910F00F0F46
:1016400050D003F0010501F4907635435DD0C20718
:1016500005D0CA0503D5E26B42F00102E2634207FE
:1016600005D5DA0703D0E26B42F00202E26382079B
:1016700005D5DA0703D0E26B42F00402E263020709
:1016800005D5DA0703D0E26B42F00802E263E26BB1
:10169000002A33D0800604D5880602D5204600F003
:1016A0006AFD20684069E16BC0F38010090700D42F
:1016B00028B3204600F051FD2068416949061AD53B
:1016C000416921F040014161606BA0B11B49416358
:1016D000606BFEF75FFE002810D0606B416BBDE8C9
:1016E00070400847830610D58B060ED52046BDE80E
:1016F000704000F040BD2046FFF798FF70BD2046C7
:10170000FFF794FF0020E06370BD030606D50B06CB
:1017100004D52046BDE8704000F030BE4006F3D549
:101720004806F1D5D168204621F04001D160202142
:1017300084F8391000F043F970BD00004B21000817
:1017400070B5040004D094F83900002510B106E00B
:10175000012070BD84F83850204600F023F8242082
:1017600084F839002068C16821F40051C160204626
:1017700000F04CFD2068016921F49041016120686E
:10178000416921F02A0141612068C16841F400519A
:10179000C160E563202084F8390084F83A00002015
:1017A00070BD000010B50068184986B088422BD182
:1017B0001748816941F4804181618069154C00F4CA
:1017C000804004904020009002200190032003906C
:1017D00069462046FEF73CFE00218020CDE900014D
:1017E000029169462046FEF733FE0B48416841F0FE
:1017F000E06141F004014160002205212520FEF74F
:10180000B9FF2520FEF7AAFF06B010BD0038014041
:1018100000100240000C01400000014090F83A30F6
:10182000202B22D1F9B1F2B190F83830012B1CD025
:1018300081628285C2850021C163222280F83A201C
:1018400080F838100168CA6842F48072CA60016882
:101850004A6942F001024A610068C16841F0200112
:10186000C1600020704701207047022070470000CF
:1018700070B50068204988423CD120480025861E6A
:1018800001781F4C40290AD1012030705FF0000020
:1018900004EB40025580401C4028F9D32570307875
:1018A000012812D12E290BD040290ED020784028B3
:1018B0000BD204EB400041802078401C207004E0F3
:1018C0003570B169306900F031FF2078402809D9BE
:1018D0005FF0000004EB40014D80401C4028F9D32C
:1018E00025703570BDE87040054801220349A438D1
:1018F000FFF794BF70BD00000038014002000020D7
:10190000C40100202DE9F843044690F839001F4631
:1019100016460D46202850D1A5B19EB194F8380046
:1019200001284AD0012084F838004FF00008C4F89C
:101930003C80212084F83900FEF76EFEA6848146A3
:10194000E68426E00120BDE8F883E08C401EE084B8
:10195000A0684B46B0F5805F4FF000024FF0800169
:101960002046009703D000F03AFDE8B90DE000F002
:1019700036FDC8B928882168C0F30800486020698E
:1019800008B16D1C05E0AD1C03E0216815F8010BE2
:101990004860E08C0028D8D14B46002240212046E8
:1019A000009700F01CFD08B10320CCE7202084F84C
:1019B000390084F838800020C5E70220C3E770476B
:1019C000FEE7000030B51B4885B0816941F0100189
:1019D0008161816901F010010491816941F0200168
:1019E0008161816901F020010491816941F0040164
:1019F0008161816901F004010491816941F008016C
:101A0000816180690C4D00F008004FF4005404908F
:101A1000002221462846FEF7F9FD0120CDE90040CD
:101A2000002002900220039069462846FEF710FD30
:101A300005B030BD001002400010014030B52A480A
:101A40008FB02849016040F2E7310024C0E9011459
:101A50004FF6FF71C1604FF40071C0E9041480219A
:101A60008161FFF7ABF900B1FEE74FF480500990B8
:101A700009A91D48FFF704FA00B1FEE71A48FFF76D
:101A80007CFB00B1FEE70420049002256020CDE934
:101A90000654059004A914480894FFF7A5FD00B169
:101AA000FEE7CDE900450294002269460E48039402
:101AB000FFF7D6FA00B1FEE70120CDE9005004227D
:101AC00069460948FFF7CCFA00B1FEE71020CDE9DE
:101AD0000D040DA90448FFF749F9002800D0FEE7DE
:101AE0000FB030BD002C0140A000002010B51F48F1
:101AF0008EB04FF08041016040F2E7310024C0E930
:101B000001144FF6FF71C1604FF400710161802133
:101B10008161FFF753F900B1FEE74FF48050079061
:101B200007A91248FFF7ACF900B1FEE70F48FFF72D
:101B3000A1FC00B1FEE71020CDE90B040BA90B4876
:101B4000FFF714F900B1FEE73020CDE900040220D0
:101B500002900022694604940448FFF745FC00B156
:101B6000FEE70248FFF72EFC0EB010BDE00000209B
:101B7000FEE770470907090E002806DA00F00F009B
:101B800000F1E02080F8141D704700F1E02080F89B
:101B90000014704770B500201D4A014602EB400357
:101BA0005980401C4028F9D311700122194D54036B
:101BB00021462846FEF72AFD00211748FFF7F9FACB
:101BC00004211548FFF7F5FA4FF47A6000F0A2FD02
:101BD000114890F83D00A0B910A1144800F03AFC5B
:101BE0001248FEF7FDFA82B2642310491048FFF74D
:101BF00089FE00210848FFF702FB04210648FFF791
:101C0000FEFA21462846BDE870400022FEF7FEBCE1
:101C10004602002000100140A000002072656369A8
:101C2000766520456E64320A0000000060010020E5
:101C300020010020012000F06DFDFBE70EB5374EBE
:101C4000DFF8DC9000254FF4005A4FF47A7B00BF98
:101C500042F210726846B16900F096FD00980828BB
:101C600011D030A1304800F0F5FB2F48FEF7B8FA4C
:101C70002D4982B26423A1F14000FFF743FE012009
:101C800000F048FDE4E7284C28A16434A21C264853
:101C900000F0E0FB2448FEF7A3FA234982B2642354
:101CA000A1F14000FFF72EFE6088722832D0742820
:101CB000E5D1012251464846FEF7A8FC584600F0FF
:101CC00029FDDFF86480002408F1E608A8F5B37761
:101CD000B560B8F802103A685163B8F866103A680F
:101CE000D162B8F86600F860386845620E48002195
:101CF0008038FFF7DBFB1420FEF798FB641C642C94
:101D0000E6DB584600F006FD002251464846FEF745
:101D10007DFCB4E77570FFF73DFFB0E700000020E1
:101D2000001001402E0000006001002022202573D9
:101D300020220A0000F053BD30B58FB00121080405
:101D4000CDE900100024029402250491CDE907504A
:101D50004FF4E01009906846FEF764FE00B1FEE71C
:101D60000F20CDE90A054FF48060CDE90C40022137
:101D70000AA80E94FEF730FD00B1FEE7FEF7F6FD6F
:101D80004FF47A71B0FBF1F0FEF7DAFF0420FEF7B2
:101D9000CBFF00220F21501EFEF7ECFC0FB030BD30
:101DA0000D48016841F00101016041680B4A114092
:101DB000416001680A4A11400160016821F48021F4
:101DC0000160416821F4FE0141604FF41F01816010
:101DD0000449C00308607047001002400000FFF88B
:101DE000FFFFF6FE08ED00E00148FFF737BA0000FC
:101DF000A00000200148FFF731BA0000E0000020F9
:101E00000148FFF72BBA0000C8020020F0B50268B5
:101E1000164B174C174D4FF08047984205D0B842EB
:101E200003D0A04201D0A84203D122F070064A6834
:101E30003243984205D0B84203D0A04201D0A84214
:101E400003D122F44074CA68224322F080044A6914
:101E5000224302608A68C2620A688262984201D1A3
:101E60000969016301214161F0BD0000002C0140BE
:101E7000000400400008004010B50123046A8B40B4
:101E80009C430462036A8A401343036210BD10B589
:101E9000846842EA032224F47F440A432243826096
:101EA00010BD826822F070020A4342F0070181608F
:101EB0007047000030B5026A22F001020262026A35
:101EC0004368846924F073050C682C4322F00205F2
:101ED0008A682A430A4DA8420BD122F00805CA6835
:101EE00023F440732A434D6922F004021D438B6999
:101EF0002B434360846149684163026230BD000046
:101F0000002C014030B5026A22F010020262026A1F
:101F1000436884690D6824F4E64444EA05248D6826
:101F200022F0200242EA05120B4DA8420ED1CD68E4
:101F300022F0800242EA05124D6923F4406343EA2D
:101F400085038D6922F0400243EA85034360846182
:101F500049688163026230BD002C014030B5026ADD
:101F600022F480720262036A4268C46923F4007337
:101F700024F073050C682C438D6843EA05230C4D4F
:101F8000A8420ED1CD6823F4006343EA05234D69CE
:101F900022F4405242EA05128D6923F4806342EA3A
:101FA00005124260C4614968C163036230BD00002C
:101FB000002C014030B5026A22F480520262046AA9
:101FC0004268C3690D6823F4E64343EA05238D683C
:101FD00024F4005444EA0534064DA84204D14D6966
:101FE00022F4804242EA85124260C361496801647A
:101FF000046230BD002C014030B403689A6822F0BE
:1020000070044A68224322F007040A6822439A6057
:102010004A6812F00F0F1FD11211082A1CD2DFE8F4
:1020200002F01B1B1B1B0B1D23040B69D1E90221B2
:10203000006830BCFFF72BBF0268136A146A24F0F3
:102040000104146202689469096924F0F00444EA06
:10205000011191610068036230BC70470A698968A8
:10206000006830BC00F006B80A698968006830BCB6
:1020700000F03EB810B5036A046A24F0010404625B
:10208000846924F0F00444EA021423F00A020A43AB
:102090008461026210BD000070B5046A24F001047E
:1020A00004628469056A0F4EB04208D0B0F1804FD7
:1020B00005D00D4EB04202D00C4EB04203D124F0F8
:1020C0000304144301E044F001041A0724F0F0046F
:1020D00044EA126225F00A0301F00A011943826101
:1020E000016270BD002C0140000400400008004067
:1020F00010B5036A23F0100303628369046A23F4B2
:10210000704343EA023224F0A00343EA01118261E2
:10211000016210BD30B5046A24F0100404628469C1
:10212000056A24F4407444EA022222F470444FF613
:10213000FF7202EA03322243A02425F0A00304EA3E
:10214000011119438261016230BD10B5406A00215E
:10215000C185C184FFF76AFA10BD0168CA6822F41C
:102160009072CA6001684A6922F001024A61202126
:1021700080F83A10704710B590F83A10222901D033
:10218000022010BD8168B1F5805F11D0016900297E
:1021900001681FD0496801F07F03816A4A1C82628E
:1021A0000B70C18D491E0904090CC18518D02BE0A4
:1021B0000269816A002A0268526805D0D2B20A8098
:1021C000816A491C8162ECE7C2F308020A80816AD5
:1021D000891CF7E74A68816A4B1C83620A70E0E752
:1021E0000168CA6822F02002CA600168CA6822F445
:1021F0008072CA6001684A6922F001024A612021A6
:1022000080F83A10FFF734FB002010BD2DE9F041B3
:10221000044600680169E26821F4405111430161FC
:102220002169A0680843616908432168CA6841F2CE
:102230000C639A430243CA6020684169A26921F491
:102240004071114341614C4920686425322688421F
:102250003CD1FEF7A1FB00EBC00101EB001061686F
:102260008900B0FBF1F7FEF797FB00EBC00101EB33
:1022700000106168B0468900B0FBF1F0B0FBF5F0EA
:102280006FF01801484307EB800106EB0110B0FB2B
:10229000F5F000F0F006FEF77FFB00EBC00101EB6C
:1022A000001061688900B0FBF1F0B0FBF5F006EBBF
:1022B0000016FEF771FB00EBC00101EB0010616836
:1022C0008900B0FBF1F7FEF767FB3BE0FEF754FB3C
:1022D00000EBC00101EB001061688900B0FBF1F771
:1022E000FEF74AFB00EBC00101EB00106168B0464D
:1022F0008900B0FBF1F0B0FBF5F06FF01801484336
:1023000007EB800106EB0110B0FBF5F000F0F006E2
:10231000FEF732FB00EBC00101EB001061688900A1
:10232000B0FBF1F0B0FBF5F006EB0016FEF724FB76
:1023300000EBC00101EB001061688900B0FBF1F710
:10234000FEF71AFB00EBC00101EB00106168890089
:10235000B0FBF1F0B0FBF5F06FF01801484307EB6C
:10236000800108EB0110B0FBF5F0216800F00F00D0
:1023700030448860BDE8F0810038014090F83910A1
:10238000212901D0022070478168B1F5805F016A80
:102390000BD04A1C0262026809785160C18C491E48
:1023A0000904090CC1840ED017E009880268C1F342
:1023B0000801516001690029016A02D0491C0162CB
:1023C000ECE7891CFBE70168CA6822F08002CA605A
:1023D0000068C16841F04001C160002070472DE9EC
:1023E000F041984617460E460446069D1DE0681CBF
:1023F0001BD02DB1FEF710F9A0EB0800A84214D9AC
:102400002068C16821F4D071C1602068416921F061
:1024100001014161202084F8390084F83A0000204D
:1024200084F838000320BDE8F0812068006836EAAF
:10243000000004D00020B842D9D00020F3E70120EA
:10244000F9E700000148FFF7F3B800002001002081
:10245000FEE700000FB4084B10B504A902AA0398C8
:1024600000F01CF8044602A9002000F0F3F8204612
:1024700010BC5DF814FB00005526000802E008C8F7
:10248000121F08C1002AFAD170477047002001E0EE
:1024900001C1121F002AFBD1704700002DE9FF4F38
:1024A0008BB09A460F460546002606E025280BD03D
:1024B00052460D9990476D1C761C28780028F5D15E
:1024C0000FB03046BDE8F08F0024A04601226049DD
:1024D00000E0044315F8013F203B02FA03F00842F4
:1024E000F7D128782E2817D115F8010F44F00404ED
:1024F0002A280ED06FF02F022878A0F13001092988
:102500000AD808EB880102EB410100EB01086D1CC1
:10251000F2E757F8048B6D1C287869283ED006DC5A
:102520000028CDD063280BD0642804D136E073286E
:1025300010D075284BD052460D999047761C85E0F7
:1025400017F8040B8DF8000000208DF80100E94613
:10255000012003E057F8049B4FF0FF3061074FF074
:10256000000401D40AE0641C44450DDA8442FADB1D
:1025700019F804100029F6D106E0641C8442FCDB43
:1025800019F804100029F8D1264404E019F8010BC9
:1025900052460D999047641EF8D257E001CF4FF094
:1025A0000A0B002802DA40422D2102E0210504D561
:1025B0002B218DF82410012103E0E10705D0202113
:1025C000F7E70DF1200908910CE00021F9E701CFB0
:1025D0004FF00A0BF9E75946FDF709FE01F1300209
:1025E00009F8012D0028F6D1ADEB090000F1200B10
:1025F000600701D44FF00108D84502DDA8EB0B00BD
:1026000000E000208046002406E009A85246005D54
:102610000D999047641C761C08988442F5DB04E011
:10262000302052460D999047761CB8F10001A8F170
:102630000108F5DC05E019F8010B52460D999047A9
:10264000761CBBF10001ABF1010BF4DC6D1C34E72F
:10265000092801000A68531C0B6010707047EFF3E3
:102660000580002800D00120704700008CB0FDF7E5
:10267000E1FFFFF761FBFFF7A5F920481E490C2297
:1026800001604FF4E131416000218160C160C0E927
:1026900004128161C161FFF753F800B1FEE7FFF753
:1026A000CDF9FFF723FA012215491448FFF7B6F8D0
:1026B00014480022114600680A900AA800F0B0F8F9
:1026C0000F4C1049A41E14226061091D6846FDF7D5
:1026D00075FD0021684600F08CF80A49E06014227C
:1026E000183105A8FDF76AFD002105A800F081F862
:1026F000206100F016F8FEE70038014020010020BC
:10270000020000203C41000801460020842900D03E
:10271000C81C704710B500B9012000F00DFE002064
:1027200010BD10B500F0BCFE002010BDFEB5064681
:1027300000200D4602900190FFF791FF4FF00044FA
:1027400098B102A8009001AB01222946304601F061
:1027500059FA012811D1029888B10A49E0080860A5
:10276000BFF34F8FBFF36F8F09E001AB0122294602
:10277000304601F0E1F9012801D02046FEBD019864
:10278000FEBD000004ED00E0FEB5002506460F4644
:102790002C460195501C06D002B11446FFF75FFF8E
:1027A00020B1822015E04FF0FF34F7E72346394689
:1027B000002001AA01F016FB012804D00CB1402032
:1027C00007E0009506E00198002801DA862000E085
:1027D000082000909DE8070086E80700FEBD10B5C0
:1027E00001F088FA012803D0BDE8104000F000BFD6
:1027F00010BD3EB504460D46B0F90800FFF784FF52
:1028000002A9CDE90001208A2B4682B2D4E900104A
:1028100001F066F9012801D000203EBD02983EBDBE
:1028200008B500680090012907D000201346024631
:10283000012103A001F004FC08BD0120F6E700001F
:10284000000000002DE9FC41002507462E460195B9
:102850000C0000D10124FFF702FF009690B101ABFC
:1028600022460921384601F039FC012812D101988D
:1028700088B10A494FF080500860BFF34F8FBFF313
:102880006F8F08E0002322460421384601F026FC21
:10289000012800D0FF252846BDE8FC8104ED00E0BA
:1028A0007CB5002506462C460195FFF7D8FE00941E
:1028B000A0B101AB00220821304601F00FFC012835
:1028C00001D0FF207CBD019888B10A494FF08050AB
:1028D0000860BFF34F8FBFF36F8F08E000231A46E5
:1028E0000321304601F0FAFB012800D0FF252846DD
:1028F0007CBD000004ED00E02DE9F041184C0F46CE
:102900000546E6682068001D00F000FC38B9206824
:1029100090F82C1001208840216981432161681CB6
:1029200007D137B12168BDE8F0410E48091D00F01C
:1029300025BC20683544B5424560216805D2A06BAE
:10294000BDE8F041091D00F001BC606B091D00F0FD
:10295000FDFBA06A854200D2A562BDE8F0810000BF
:1029600050000020581300202DE9F041054600F0EA
:1029700011FC2E4CA068401CA06020682C4F10B1A8
:10298000606940B32DE02560A068012829D10026A8
:1029900006EB860007EB800000F0CAFB761C072ED2
:1029A000F6D323488C3000F0C3FB2148A03000F060
:1029B000BFFB1F48B43000F0BBFB1D48C83000F01F
:1029C000B7FB1B48DC3000F0B3FB19488C30606368
:1029D0001430A06305E02068E96AC06A884200D824
:1029E0002560606A401C6062E96A012022698840B3
:1029F0001043206101EB810007EB8000291D00F0EE
:102A0000BDFB00F0E7FB606900280CD02068E96A94
:102A1000C06A884207D207494FF080500860BFF370
:102A20004F8FBFF36F8FBDE8F08100005000002092
:102A30007C12002004ED00E010B500F0ABFB0E4C62
:102A40002068A0B90D4800F073FB0C48143000F06A
:102A50006FFB0A48E0601430206100220C210A203C
:102A600000F0DCFD206010B105A100F02FFCBDE8F6
:102A7000104000F0AFBB00008C0000206C13002061
:102A8000546D72510000000070B5114E114C17E0EA
:102A900000F03EFD3068B8B101F070FA00F07AFB4A
:102AA000F068C568281D00F031FBA068401EA060DA
:102AB0006068401E606000F08DFB284600F055F80D
:102AC00060680028E4D170BD01F058FAF8E7000012
:102AD000441300205000002030B4026C0B46002A42
:102AE0000BD0C1681144C1604468A14201D30168A0
:102AF000C16030BC1846FDF761BB30BC70472DE9A2
:102B0000F041856B174604460026026C82B1C7B1BE
:102B1000E068FDF753FBE168206C091AE160226868
:102B2000914202D26168081AE060022F16D017E0C5
:102B30002068A8B9606801F09BF906460020606033
:102B40000EE0A068FDF73AFB216CA0680844A06085
:102B50006168884204D32068A06001E005B16D1E61
:102B60006D1CA5633046BDE8F08110B50446006BCE
:102B700000F044FB2046BDE8104000F03FBB0000E1
:102B80000F4840F63471420705D0C01D0C4A20F0B2
:102B90000700821A891A0B4A00230144C2E9000384
:102BA0000839103A21F0070111604B600B600B1AD5
:102BB000C0E9001393604FF000405360D06070474D
:102BC000080300203C000020074C4FF08056074DC2
:102BD000FFF75AFF20680128FAD92E60BFF34F8F04
:102BE000BFF36F8FF4E700007C12002004ED00E0DB
:102BF0002DE9F0479A46DDE9098481466FF0030329
:102C0000206B03EB82021044089D20F0070670073A
:102C100007D0502080F31188BFF34F8FBFF36F8F21
:102C2000FEE723180A5C83F834200A5C12B1401CCA
:102C30001028F6D3002784F84370072D00D306250B
:102C4000E562C4E91157201D00F07DFA04F1180077
:102C500000F079FA2461C5F107006462A061E764BD
:102C600084F8507052464946304600F03DFA2060E4
:102C7000B8F1000F01D0C8F80040BDE8F0870000AF
:102C800030B5114900E011460A688242FBD34B6817
:102C90005C18844203D14068184448600846436881
:102CA0001C18944209D1084C103C2468A24209D057
:102CB00052681A4442600A6812680260814200D079
:102CC000086030BD0460F9E73C00002070B50024C6
:102CD00041600B4D0061914206D8D11A8269914240
:102CE00006D2011D286907E09A4203D2994201D316
:102CF000012403E0011DE86800F028FA204670BDB9
:102D00008C00002010B5044600F044FAA06B28B1F6
:102D10005FF0000400F05EFA204610BD0124F9E7E0
:102D200030B587B02B4D4BE00498002848DB069C5B
:102D3000606910B1201D00F0E9F902A800F0B6F8B2
:102D4000024604980A283BD2DFE800F00505053A60
:102D5000263705053A260598A16903460144204611
:102D6000FFF7B4FF00B3616A20468847E069012895
:102D700026D1002000900598A16900234218194629
:102D8000204601F0ABF978B9502080F31188BFF3E9
:102D90004F8FBFF36F8FFEE70598A06128B18118B0
:102DA00013462046FFF792FF0AE0502080F3118877
:102DB000BFF34F8FBFF36F8FFEE7204600F01EFA80
:102DC00000231A4604A9286800F04CFC0028ABD167
:102DD00007B030BD8C0000202DE9FC410F460546B0
:102DE00000F096FB01A800F061F80446019818B1C4
:102DF00001F0C4F8BDE8FC81224EAFB13069006833
:102E0000A8B30027291B3A46306800F073FA01F096
:102E1000B5F80028EED11C494FF080500860BFF390
:102E20004F8FBFF36F8FE5E7A542EBD801F0A6F80F
:102E3000F0682746C068C468201D00F067F9E069A3
:102E4000012810D1A0692B4641193A462046FFF7C8
:102E50003DFF40B100200346014600902A4620462F
:102E600001F03CF920B1616A20468847C2E707E0DB
:102E7000502080F31188BFF34F8FBFF36F8FFEE7B1
:102E80000127BFE78C00002004ED00E00648416BFD
:102E9000096829B1416BC968C9684968816270478E
:102EA0004FF0FF31FAE700005000002070B50546F2
:102EB00000F02EFF064E0446B068844203D200F0B4
:102EC00009F8012000E0002028602046B46070BDB1
:102ED0008C000020F8B5194D1FE0C068C468066872
:102EE000201D00F013F9616A20468847E069012837
:102EF00013D1A0693044B04206D924616060211D1D
:102F0000E86800F023F908E000200346014600903D
:102F10003246204601F0E2F838B1E868016800293D
:102F2000DBD12969C5E90310F8BD502080F3118871
:102F3000BFF34F8FBFF36F8FFEE700008C000020C0
:102F400008484068401C4FF0500080F3118804D0BE
:102F5000BFF34F8FBFF36F8FFEE7BFF34F8FBFF30A
:102F60006F8FFEE744000020074CE068016841B124
:102F7000C0680021D0F80000FFF72EFFFFF7D0FE59
:102F8000F3E701210020F7E78C0000202DE9F04154
:102F9000044600F0FFF894F9455004F1240609E0D6
:102FA000606A48B1304600F0AFFF08B100F0EAF9BE
:102FB0006D1E6DB2002DF3DC4FF0FF3684F84560D6
:102FC00000F008F900F0E6F894F9445004F1100715
:102FD00009E0206948B1384600F096FF08B100F0DA
:102FE000D1F96D1E6DB2002DF3DC84F84460BDE8AC
:102FF000F04100F0EFB800002DE9F0410546002750
:1030000000F086FA314E306808B9FFF7B9FDF06874
:1030100005424BD1C5B3083568070ED005F007004F
:10302000C0F108000544680707D0502080F31188DC
:10303000BFF34F8FBFF36F8FFEE72DB370688542EC
:1030400034D82248103001460C6801E020460C4676
:103050006168A94202D221680029F7D131688C4207
:1030600024D007682168016060680837411B102977
:103070000FD96019420708D0502080F31188BFF3A0
:103080004F8FBFF36F8FFEE710E041606560FFF781
:10309000F7FD61687068401A7060B268904200D2B3
:1030A000B060F06801430020C4E9000100F066FF51
:1030B000780707D0502080F31188BFF34F8FBFF3FC
:1030C0006F8FFEE73846BDE8F08100002C0000203D
:1030D0000449086818B10868826C521C8264086848
:1030E000704700005000002010B5031F4FF080749F
:1030F0001C601B1F21F001011960191F024B0B609E
:10310000143940380A6010BD412F0008D0E901325F
:1031100001699A60D0E901235A604A68824201D16C
:1031200082684A60002202610868401E0860704799
:1031300000F108014FF0FF32C0E90112C1600161E6
:1031400000210160704700210161704730B50B68B4
:103150005A1C02D000F1080202E0026904E0224693
:10316000546825689D42FAD953684B6099608A601B
:10317000516008610168491C016030BD42684A60C5
:1031800093688B6093685960916008610168491C7D
:1031900001607047502080F31188BFF34F8FBFF359
:1031A0006F8F0A494868401C486001280CD10848C4
:1031B000006810F0FF0F07D0502080F31188BFF394
:1031C0004F8FBFF36F8FFEE7704700004400002071
:1031D00004ED00E00849486828B1401E486001D16C
:1031E00080F311887047502080F31188BFF34F8F10
:1031F000BFF36F8FFEE700004400002070B5002889
:1032000027D0144DA0F108046168E868014207D195
:10321000502080F31188BFF34F8FBFF36F8FFEE70D
:1032200022683AB1502080F31188BFF34F8FBFF36B
:103230006F8FFEE78143616000F06AF9606869683A
:10324000084468602046FFF71BFDBDE8704000F0B1
:1032500095BE70BD2C00002006484FF47A710068BE
:10326000B0FBF1F14FF0E020491E416107210161FF
:10327000704700002800002010B5FCF789FF1149B5
:1032800010280ED300F1E02090F8F0030A78904265
:1032900007D2502080F31188BFF34F8FBFF36F8F99
:1032A000FEE709480068896800F4E060884207D9B1
:1032B000502080F31188BFF34F8FBFF36F8FFEE76D
:1032C00010BD0000440000200CED00E010B5084BDC
:1032D000002200BF53F832401CB1521C082AF9D317
:1032E00010BD43F8321003EBC201486010BD00006E
:1032F0003C12002070B515460E460446FFF74AFF03
:1033000094F944100020491C01D184F8440094F938
:103310004510491C01D184F84500FFF75BFFA06B05
:1033200028B92A46314604F1240000F049F8204625
:10333000BDE87040FFF72ABE10B5020014D00F4858
:10334000006B38B1502080F31188BFF34F8FBFF36B
:103350006F8FFEE700F0DCF800211046FFF7CCFA93
:1033600000F00CFE002807D105494FF0805008609E
:10337000BFF34F8FBFF36F8F10BD000050000020D0
:1033800004ED00E001490120C861704750000020B1
:1033900010B50C4650B1094909681831FFF7D6FE3F
:1033A0002046BDE810400121FFF7A6BA502080F367
:1033B0001188BFF34F8FBFF36F8FFEE750000020DF
:1033C00070B514460D4668B10A4909681831FFF70F
:1033D000D5FE0CB14FF0FF3521462846BDE87040C0
:1033E000FFF78ABA502080F31188BFF34F8FBFF3E5
:1033F0006F8FFEE75000002070B5040039D01D4DDE
:10340000E06A2968C96A884233D2A069002804DBCF
:103410002868C06AC0F10700A061E16A164E01EB9E
:103420008101606906EB810188421FD1201DFFF7F1
:103430006DFE012150B9E06A00EB800256F82220AF
:1034400022B92A6901FA00F082432A612868C06A19
:10345000E0622A6981401143296100EB800006EB9C
:103460008000211DBDE87040FFF788BE2868C06A53
:10347000E06270BD500000207C12002028B1074996
:103480000A6A0260C96841607047502080F3118861
:10349000BFF34F8FBFF36F8FFEE700005000002097
:1034A0001CB517480024CDE900402346802215A111
:1034B000164800F015FB012803D100F0E9FD0128B2
:1034C00009D0401C1AD1502080F31188BFF34F8FD0
:1034D000BFF36F8FFEE7502080F31188BFF34F8F4B
:1034E000BFF36F8F06484FF0FF312C388162012106
:1034F0004161C460BDE81C4000F040B81CBD000044
:103500007C00002049444C4500000000C92B000805
:103510000248016B491C0163704700005000002005
:103520001448016B11B10121C16170470021C161D3
:103530000169B1FA81F1C1F11F0101EB81020E496C
:1035400051F822306BB101EB820101F108034A68A6
:1035500052684A609A4201D152684A60D16801605B
:103560007047502080F31188BFF34F8FBFF36F8FE8
:10357000FEE70000500000207C1200201CB5194915
:1035800008780190FF20087008788DF800009DF8F9
:103590000000154A00F0500010700720906005E010
:1035A0009DF800305B008DF80030401E9DF8003023
:1035B0001B06F5D4000200F4E060906001980870EA
:1035C0000A48016841F470010160016841F07041EE
:1035D0000160FFF741FE00205060FCF7A3FD0020D2
:1035E0001CBD000000E400E04400002020ED00E0ED
:1035F00010B5502080F31188BFF34F8FBFF36F8F4A
:1036000000F08CFB18B104494FF080500860002096
:1036100080F3118810BD000004ED00E070B50E4687
:10362000050013D0D6B105FB06F04830FFF7E4FCE7
:10363000040009D004F1480120468EB10160C0E9C0
:103640000F56012100F0C4F8204670BD502080F3D1
:103650001188BFF34F8FBFF36F8FFEE70020E4E7C1
:103660000060ECE72DE9FF4F002683B09B468A46B9
:10367000040003D0BAF1000F08D011E0502080F30D
:103680001188BFF34F8FBFF36F8FFEE7206C38B107
:10369000502080F31188BFF34F8FBFF36F8FFEE789
:1036A00000F028FBDFF824814FF000094FF080572D
:1036B00048B9059838B1502080F31188BFF34F8F77
:1036C000BFF36F8FFEE7FFF765FDA56B45B351466E
:1036D0002046E668FFF700FABBF1000F13D0E66062
:1036E000606A50B104F1240000F00EFC28B1C8F863
:1036F0000070BFF34F8FBFF36F8FFFF76BFD01209B
:1037000007B0BDE8F08F6D1EA563206810B9FFF704
:10371000DFFC606020690028EFD004F11000E3E7CF
:10372000059808B11EB106E0FFF754FD27E0684692
:10373000FFF7A4FE0126FFF74DFDFFF7E9FEFFF7B7
:1037400029FD94F94400401C01D184F8449094F977
:103750004500401C01D184F84590FFF73BFD05A9C9
:10376000684600F087F9002820460AD0FFF70EFCD3
:1037700000F004FC2046FFF7C5FA0028A3D0002083
:10378000BEE7FFF7BFFAD8B1206830B9FFF702FDF6
:103790006068FFF731FEFFF71DFD04F12400059975
:1037A000FFF7F6FD2046FFF7F1FB00F0E7FB0028EE
:1037B00089D1C8F80070BFF34F8FBFF36F8F82E7D6
:1037C0002046FFF7E3FB00F0D9FB7CE704ED00E0C7
:1037D00070B50D46040025D0FFF7DCFCD4E90F20BE
:1037E000216802FB001161600021A1632168A160D2
:1037F0000A46D4E90F01401E00FB0121E160214689
:103800004FF0FF3001F8440F487004F110008DB103
:10381000FFF78EFC04F12400FFF78AFCFFF7DAFCC7
:10382000012070BD502080F31188BFF34F8FBFF38C
:103830006F8FFEE721690029F0D000F065FB0028BA
:10384000ECD004494FF080500860BFF34F8FBFF3B6
:103850006F8FE3E704ED00E02DE9FF4782B01D46DE
:103860008A464FF00008040003D0BAF1000F08D0D8
:1038700011E0502080F31188BFF34F8FBFF36F8F9B
:10388000FEE7206C38B1502080F31188BFF34F8FD2
:10389000BFF36F8FFEE7022D0AD1E06B012807D03E
:1038A000502080F31188BFF34F8FBFF36F8FFEE777
:1038B00000F020FA3F4F4FF000094FF0805648B912
:1038C000049838B1502080F31188BFF34F8FBFF3B5
:1038D0006F8FFEE7FFF75EFCA06BE16B884207D3BA
:1038E000022D05D00498D0B1B8F1000F1AD01EE017
:1038F0002A4651462046FFF702F9616A19B104F1E0
:10390000240000F001FB20B13E60BFF34F8FBFF3F6
:103910006F8FFFF75FFC012006B0BDE8F087FFF76F
:1039200059FC22E06846FFF7A9FD4FF00108FFF7B8
:1039300051FCFFF7EDFDFFF72DFC94F94400401C0E
:1039400001D184F8449094F94500401C01D184F8D9
:103950004590FFF73FFC04A9684600F08BF830B1B2
:103960002046FFF713FB00F009FB0020D4E7FFF728
:1039700011FCA06BE16B884213D1FFF72BFC04F123
:1039800010000499FFF704FD2046FFF7FFFA00F04E
:10399000F5FA00289ED13E60BFF34F8FBFF36F8FC3
:1039A00098E7FFF717FC2046FFF7F0FA00F0E6FA79
:1039B00090E7000004ED00E02DE9F0471F46904637
:1039C0008946040003D0B9F1000F08D011E050205F
:1039D00080F31188BFF34F8FBFF36F8FFEE7206C2A
:1039E00038B1502080F31188BFF34F8FBFF36F8F32
:1039F000FEE7022F0AD1E06B012807D0502080F3A8
:103A00001188BFF34F8FBFF36F8FFEE7FFF734FCD2
:103A10005020EFF3118680F31188BFF34F8FBFF36F
:103A20006F8FA06BE16B884206D3022F04D0002079
:103A300086F31188BDE8F08794F945503A46494627
:103A40002046FFF75CF8681C04D06D1C84F84550D4
:103A50000120EDE7606A0028FAD004F1240000F0AC
:103A600053FA0028F4D0B8F1000FF1D00121C8F8C2
:103A70000010EDE770B50D46040019D005B3FFF74F
:103A800089FB164AD1682868431C0FD02368126A44
:103A9000934202D062688A421AD96268891A8142C6
:103AA00016D2401A28602046FFF7E8FC002410E0F8
:103AB000502080F31188BFF34F8FBFF36F8FFEE765
:103AC000502080F31188BFF34F8FBFF36F8FFEE755
:103AD0000124FFF77FFB204670BD0000500000204E
:103AE0002DE9FF5F8346DDE90E87994616468A4633
:103AF0009000FFF781FA05001AD05420FFF77CFAF6
:103B0000040012D025630021CDE90241CDE90087F0
:103B10004B46324651465846FFF76AF82046FEF7B4
:103B200023FF012004B0BDE8F09F2846FFF766FBA5
:103B30004FF0FF30F6E700002DE9F0411F469046B8
:103B40000D46012690B10446FFF724FB0FB1E06C4F
:103B5000386094F85000022184F85010B8F1050F35
:103B600016D2DFE808F0150B0E141200502080F377
:103B70001188BFF34F8FBFF36F8FFEE7E16C2943CE
:103B800001E0E16C491CE16402E0022803D0E56435
:103B9000012802D02AE0002628E0201DFFF7B6FA0F
:103BA000154DE06A01212A698140114329611349B9
:103BB00000EB800001EB8000211DFFF7DFFAA06A17
:103BC00038B1502080F31188BFF34F8FBFF36F8F50
:103BD000FEE7E06A2968C96A884207D908494FF0B8
:103BE00080500860BFF34F8FBFF36F8FFFF7F2FA7B
:103BF0003046BDE8F0810000500000207C1200201B
:103C000004ED00E02DE9F0471F46DDF820909246D4
:103C10000D4604004FF001081AD0FFF72DFB50208D
:103C2000EFF3118680F31188BFF34F8FBFF36F8FCF
:103C30000FB1E06C386094F85000022184F8501005
:103C4000BAF1050F16D2DFE80AF0150B0E141200B8
:103C5000502080F31188BFF34F8FBFF36F8FFEE7C3
:103C6000E16C294301E0E16C491CE16402E00228B7
:103C700003D0E564012803D033E04FF0000830E0C2
:103C8000A06A38B1502080F31188BFF34F8FBFF383
:103C90006F8FFEE7154D286B012780B1144804F1A2
:103CA000180100BFFFF76AFAE06A2968C96A88420A
:103CB00017D9B9F1000F13D0C9F8007011E0201D19
:103CC000FFF724FAE16A2A6907FA01F01043286134
:103CD00001EB81000649B43901EB8000211DE1E7C9
:103CE000EF6186F311884046BDE8F0875000002060
:103CF000301300200548416919B1006B18B100204C
:103D000070470120704702207047000050000020DB
:103D10000148C06870470000500000202DE9F041C4
:103D20002E4C0027206B40B1A069401CA061E069C7
:103D300000B101273846BDE8F081E668761CE660F0
:103D400013D1606B006838B1502080F31188BFF345
:103D50004F8FBFF36F8FFEE7606BA16B6163A06352
:103D6000206A401C2062FFF791F8A06ADFF870809B
:103D7000864209D3606B006880B1606BC068C5681B
:103D8000686886420DD2A0622068C06A00EB80019C
:103D900058F821000128CAD90127C8E74FF0FF30A1
:103DA000F1E7281DFFF7B2F9A86A18B105F118006C
:103DB000FFF7ACF9E86A01212269814011432161D2
:103DC00000EB800108EB8100291DFFF7D7F9E86AB5
:103DD0002168C96A8842CDD30127CBE75000002073
:103DE0007C1200202DE9F0411E4615468846074604
:103DF000FFF7D0F91C4C206890F85000022814D02E
:103E00002068C16CB943C1642168012081F8500069
:103E10005EB101213046FEF76FFD14494FF080502E
:103E20000860BFF34F8FBFF36F8FFFF7D3F9FFF732
:103E3000B1F915B12068C06C2860206890F8500076
:103E400001280ED02068C16C21EA0801C164012557
:103E50002168002081F85000FFF7BCF92846BDE832
:103E6000F0810025F4E700005000002004ED00E0A0
:103E700070B504004FF0000140D0214D2868844205
:103E800007D0502080F31188BFF34F8FBFF36F8F9F
:103E9000FEE7A06C38B1401EA064636CE26A9A42EF
:103EA0002CD040B12AE0502080F31188BFF34F8F0F
:103EB000BFF36F8FFEE7201DFFF728F9114A01219C
:103EC00050B9E06A00EB800352F8233023B92B6924
:103ED00001FA00F083432B61606CE062C0F10700DF
:103EE000A061E06A2B6981401943296100EB8000E1
:103EF00002EB8000211DFFF741F90121084670BD4A
:103F0000500000207C1200202DE9F041C068C468F8
:103F1000ACB104F118000746FFF7F8F8154D286B0F
:103F20000126A0B139461448FFF728F9E06A29684C
:103F3000C96A88421CD90120EE61BDE8F081502099
:103F400080F31188BFF34F8FBFF36F8FFEE7201D03
:103F5000FFF7DCF8E16A2A6906FA01F010432861EC
:103F600001EB81000449B43901EB8000211DDBE73E
:103F70000020E2E750000020301300202DE9F04738
:103F80002C4D00242746286B38B1FFF703F9286B26
:103F9000401E2863286B40B146E0502080F3118812
:103FA000BFF34F8FBFF36F8FFEE7A968224E01204A
:103FB000D1B3A6F1B40980463068E8B1F068C468AE
:103FC00004F11800FFF7A2F8201DFFF79FF8E06A40
:103FD0002A6908FA00F11143296100EB800109EB1D
:103FE0008100211DFFF7CAF8E06A2968C96A884282
:103FF000E2D3C5F81C80DFE70CB1FEF747FFAC69E0
:1040000044B14646FFF78AFE00B1EE61641EF9D165
:104010000020A861E86938B108490127380708601D
:10402000BFF34F8FBFF36F8FFFF7D4F83846BDE86B
:10403000F0870000500000203013002004ED00E065
:104040002DE9F0470746994616460D462820DDF82B
:1040500020A0FEF7D1FF04000ED0B8464F46D1464F
:104060006DB1FEF7E9FC04F11801C4F8008081E8A5
:10407000E002201DFFF767F82046BDE8F0875020DA
:1040800080F31188BFF34F8FBFF36F8FFEE70000FF
:104090001CB5FEF7D1FC0D48006868B10B4906203D
:1040A000091DCDE9000100234FF4807208A10A48E0
:1040B000FFF716FD002807D1502080F31188BFF3C9
:1040C0004F8FBFF36F8FFEE71CBD00008C000020F8
:1040D000546D722053766300692F0008FEB51E46AA
:1040E00013460200089D4FF0000014D0124C2768C0
:1040F000002F0FD0CDE900130292062915DAFFF741
:10410000F9FD02284FF000030DD000226946206817
:10411000FFF7A2FBFEBD502080F31188BFF34F8F45
:10412000BFF36F8FFEE72A46F0E700233246694669
:104130003846FFF741FCFEBD8C0000204502000818
:1041400080410008351C000800000000000000004D
:10415000800000008C4100083D1C000802000000A7
:1041600000000000800000000000000000000000CF
:10417000010203040607080900000000010203040D
:104180004D61696E5461736B00000000556172747B
:104190005461736B00000000B8410008000000206B
:1041A000A00000007C24000858420008A000002065
:1041B000F81600008C240008000000000A0000002F
:1041C00000000000000000000000000000000000EF
:1041D00000000000010000001000000000000000CE
:1041E00000A24A04000000000000000000000000DF
:1041F00000000000000000000000000000000000BF
:10420000AAAAAAAA00000000000000000000000006
:10421000000000000000000000000000000000009E
:10422000000000000000000000000000000000008E
:10423000000000000000000000000000000000007E
:10424000000000000000000000000000000000006E
:08425000000000000000000066
:04000005080000ED02
:00000001FF
