:020000040800F2
:100000001004002045010008BB0A0008230A00086C
:10001000B90A00088D010008910B000800000000DB
:10002000000000000000000000000000DF0A0008DF
:100030008F01000800000000DD0A0008E10A000846
:100040005F0100085F0100085F0100085F01000810
:100050005F0100085F0100085F0100085F01000800
:100060005F0100085F0100085F0100085F010008F0
:100070005F0100085F0100085F0100085F010008E0
:100080005F0100085F0100085F0100085F010008D0
:100090005F0100085F0100085F0100085F010008C0
:1000A0005F0100085F0100085F0100085F010008B0
:1000B0005F0100085F0100085F0100085F010008A0
:1000C0005F0100085F0100085F0100085F01000890
:1000D0005F0100085F0100085F0100085F01000880
:1000E0005F0100085F0100085F0100085F01000870
:1000F0005F0100085F0100085F0100085F01000860
:100100005F0100085F0100085F0100085F0100084F
:100110005F0100085F0100085F0100085F0100083F
:100120005F0100085F0100085F0100085F0100082F
:10013000DFF80CD000F018F800480047B10B0008B9
:10014000100400200648804706480047FEE7FEE707
:10015000FEE7FEE7FEE7FEE7FEE7FEE7FEE7FEE777
:10016000490B000831010008064C074D06E0E06825
:1001700040F0010394E8070098471034AC42F6D3EE
:10018000FFF7DAFFC80D0008E80D0008FEE770472A
:1001900070B5044600F008F90546601C02D004481A
:1001A0000078044400F000F9401BA042FAD370BD6F
:1001B000000000202DE9F84FDFF8B8A100220AF175
:1001C000040B144601274FF00F090BF1040E00BF7A
:1001D0000B6807FA04F52B40AB4274D1DFF898C1E5
:1001E0004E68A6EB0C0866452BD00DDC032E34D0F0
:1001F00005DC36B3012E19D0022E2FD11BE0112EB3
:1002000016D0122E2AD119E0B8F5881F19D006DCB5
:10021000B8F5803F15D0B8F5801F1FD111E0B8F5B3
:10022000001F0ED0B8F5041F18D10AE0CA6815E007
:10023000CA68121D12E0CA6808320FE0CA680C32A0
:100240000CE08A682AB1012A4FF0080203D0456108
:1002500004E0042202E0056100E00022FF2B01D847
:10026000064601E000F104064FEA840501D9A5F134
:100270002005D6F800C009FA05F82CEA080C02FAA5
:1002800005F54CEA050CC6F800C04D68ED006AD5CE
:100290003A4DAE6946F00106AE61AD6924F0030641
:1002A00005F001050095364D06EB050CDCF808500D
:1002B000A6074FEA167809FA08F6B543314EB04260
:1002C00002D100261AE04EE02F4EB04201D10126A5
:1002D00014E02E4EB04201D102260FE02C4EB04267
:1002E00001D103260AE02B4EB04201D1042605E0DD
:1002F000294EB04201D1052600E0062606FA08F68E
:100300002E43CCF808604D68DAF80060ED035546DE
:1003100001D51E4300E09E432E604D68AD0305D518
:10032000DBF800601E43CBF8006004E0DBF800500F
:100330009D43CBF800504D68DEF80060ED02754635
:1003400001D51E4300E09E432E604D68AD0205D5E9
:10035000084D0C352E681E432E6004E0054E0C3609
:1003600035689D433560641C102CFFF431AFBDE847
:10037000F88F00000004014000001110001002403E
:100380000000014000080140000C01400010014045
:100390000014014000180140001C01400AB1016135
:1003A00070470904FBE700000148806870470000BF
:1003B0000000002002488168027811448160704783
:1003C00000000020074810B5016841F010010160ED
:1003D000032000F087F8002000F006F800F024F871
:1003E000002010BD0020024070B50D4D04464FF4B2
:1003F0007A712878B1FBF0F00A490968B1FBF0F096
:1004000000F0F7FA48B9102C07D200222146501EFE
:1004100000F048F800206C6070BD012070BD000045
:10042000000000200C0000201C4808B5816941F044
:1004300001018161806900F001000090032000F05B
:1004400051F8002211466FF00B0000F02BF800224B
:1004500011466FF00A0000F025F8002211466FF0F7
:10046000090000F01FF800221146501F00F01AF892
:1004700000221146101F00F015F800221146901EB0
:1004800000F010F800221146501E00F00BF804484E
:10049000416821F0E061416008BD000000100240A9
:1004A00000000140F0B40E4B1B680C46C3F302235E
:1004B000C3F10705042D00D90425191D072901D210
:1004C000002300E0DB1E012606FA05F1491E21404B
:1004D00099409E40761E16403143F0BC00F0EEBAC3
:1004E0000CED00E0064900F0070208684FF6FF0334
:1004F000184040EA0220034A104308607047000099
:100500000CED00E00000FA052DE9F047DFF83C8132
:1005100005460E46D8F8000000F00700B0420CD2A5
:10052000D8F8001021F007013143C8F80010D8F8BE
:10053000000000F00700B04263D12878444C8007E7
:1005400005D56068A96820F0F0000843606028784D
:10055000C00745D06868012816D02168022816D047
:10056000890700294DDA616821F0030101436160C8
:10057000FFF71AFF6968074641F2883001290FD05A
:100580000229814619D027E021688903E9E789011A
:10059000E7E700BFFFF708FFC11B494501D918E095
:1005A00081466068C0F381000128F3D118E000BFE4
:1005B000FFF7FAFEC11B49450BD86068C0F3810004
:1005C0000228F5D10CE000BFFFF7EEFEC11B494544
:1005D00002D90320BDE8F087606810F00C0FF3D15A
:1005E000D8F80010404601F00701B1420BD901686C
:1005F00021F0070131430160006800F00700B042BC
:1006000001D00120E6E72878400705D56068E96851
:1006100020F4E060084360602878000706D5606831
:10062000296920F4605040EAC100606000F01CF8C5
:100630006168084AC1F30311515CC840064908606B
:100640000020FFF7D1FE0020C4E700000020024098
:1006500000100240B80D00080C000020014800689E
:10066000704700000C00002012A185B00FC98DE872
:100670000F0014A0144A006804905168134801F058
:100680000C03042B10D0082B0ED1C1F38343C903F4
:100690001DF803000AD5516804AAC1F34041515C1A
:1006A0000A4A5043B0FBF1F005B07047084948438F
:1006B000FAE7000002030405060708090A0B0C0DFF
:1006C0000E0F1010010200000010024000127A000C
:1006D00000093D002DE9F84F04460078B94DC007E8
:1006E00048D06868C0F38100012807D06868C0F36B
:1006F0008100022809D16868C00306D528688003F4
:1007000038D5606800286FD034E06068B0F5803F6D
:100710000BD010B1B0F5A02F11D0286820F4803094
:100720002860286820F4802002E0286840F48030A7
:100730002860606888B1FFF737FE064609E0286840
:1007400040F480202860F0E7FFF72EFE801B64282D
:1007500075D828688003F7D50CE0FFF725FE06461C
:1007600005E000BFFFF720FE801B6428F0D8286852
:100770008003F7D42078944E80074FF001094FF0A2
:1007800000083BD5686810F00C0F07D06868C0F30C
:100790008100022809D16868C00306D42868800750
:1007A00014D5206901281FD110E02069B0B1C6F826
:1007B0000090FFF7F9FD074605E000BFFFF7F4FDE5
:1007C000C01B0228C4D828688007F7D5286861694B
:1007D00020F0F80040EAC10028600FE0C6F8008071
:1007E000FFF7E2FD074606E0E9E000BFFFF7DCFDAA
:1007F000C01B022823D828688007F7D42078000778
:100800002CD57248A169D9B1C0F80090FFF7CCFD92
:10081000074604E0FFF7C8FDC01B02280FD8686A2E
:100820008007F7D56A484FF4FA510068B0FBF1F041
:10083000009000BF0098411E0091FAD20EE080E0C7
:10084000C0F80080FFF7B0FD074604E0FFF7ACFDFD
:10085000C01B022875D8686A8007F7D42078400743
:1008600060D5E8690027C00008D4E86940F08050EE
:10087000E861E869012700F0805000905548016860
:10088000C90513D40168834641F480710160FFF704
:100890008BFD824606E000BFFFF786FDA0EB0A0055
:1008A00064284ED8DBF80000C005F5D5E0680128C3
:1008B0000AD008B1052813D0286A20F00100286268
:1008C000286A20F0040002E0286A40F00100286253
:1008D000E06841F2883B98B1FFF766FD82460BE085
:1008E000286A40F004002862EEE700BFFFF75CFDD5
:1008F000A0EB0A0159455AD8286A8007F6D50CE0C2
:10090000FFF752FD824605E0FFF74EFDA0EB0A011E
:1009100059454CD8286A8007F6D41FB1E86920F001
:100920008050E861E06988B36968C1F381010229F8
:1009300045D00228C6F8608004D0FFF735FD044694
:1009400038E034E0FFF730FD074604E0FFF72CFD08
:10095000C01B02282BD828688001F7D4206AB0F584
:10096000803F05D16868A16820F4003008436860C2
:10097000D4E908010843696821F4741108436860E8
:10098000C6F86090FFF710FD044606E015E000BFD2
:10099000FFF70AFD001B022809D828688001F7D557
:1009A0000BE000BFFFF700FD001B022802D9032067
:1009B000BDE8F88F28688001F4D40020F8E7012012
:1009C000F6E700000010024000004242800442426C
:1009D0000C000020007000404FF0E021042808695E
:1009E00003D020F004000861704740F00400FAE7EB
:1009F000704710B5401EB0F1807F01D3012010BDBB
:100A00004FF0E02460610F21601700F057F80020DC
:100A1000A06107202061002010BD10B5FFF7E8FF9E
:100A200010BDFEE7F0B5214885B0816941F0400175
:100A30008161816901F040010491816941F02001E7
:100A40008161816901F020010491816941F0040113
:100A50008161816901F004010491816941F008011B
:100A600081618069124E00F008004FF42A5404900E
:100A7000002221463046FFF791FC0E4F351400222C
:100A800029463846FFF78AFC009401240194694600
:100A900030460394FFF78EFBCDE900546946384693
:100AA0000394FFF787FB05B0F0BD00000010024083
:100AB0000018014000140140FEE770470907090EC5
:100AC000002806DA00F00F0000F1E02080F8141D85
:100AD000704700F1E02080F80014704770477047BD
:100AE00010B5FFF767FCBDE81040FFF796BF10B5E3
:100AF00090B0022000900120049010200024059066
:100B000007946846FFF7E6FD00B1FEE70F20CDE948
:100B10000A040C940D9400210AA80E94FFF7F4FC2B
:100B200000B1FEE7FFF79AFD4FF47A71B0FBF1F0E8
:100B3000FFF75FFF0420FFF74FFF00221146501E12
:100B4000FFF7B0FC10B010BD0D48016841F0010185
:100B5000016041680B4A1140416001680A4A114036
:100B60000160016821F480210160416821F4FE01E7
:100B700041604FF41F0181600449C0030860704761
:100B8000001002400000FFF8FFFFF6FE08ED00E055
:100B9000FEE702E008C8121F08C1002AFAD1704718
:100BA0007047002001E001C1121F002AFBD17047ED
:100BB000FFF708FCFFF79BFFFFF734FF00224FF41D
:100BC0002A512648FFF7EAFB002244F2010124489B
:100BD000FFF7E4FB4FF4FA70FFF7DAFA332000F086
:100BE00041F8322000F03EF8282000F03BF80E20BB
:100BF00000F038F8062000F035F8012000F032F857
:100C0000022000F02FF84FF4A47000F02BF840F20F
:100C1000451000F027F84FF4A674204600F022F8A3
:100C2000204600F01FF8E51C284600F01BF84FF4A2
:100C3000FF7000F017F840F2571000F013F8284644
:100C400000F010F8A01D00F00DF8204600F00AF8A2
:100C50004FF4A27000F006F8FEE700000018014013
:100C6000001401402DE9F05F0446514DC0054FF4DA
:100C7000005901D5012200E0002249462846FFF72D
:100C80008DFB4C4F20064FF4804B01D5012200E034
:100C9000002259463846FFF781FB600601D5012244
:100CA00000E0002201213846FFF778FBA00601D5BD
:100CB000012200E0002280212846FFF76FFBE006BA
:100CC00001D5012200E000224FF400712846FFF711
:100CD00065FB0120FFF75CFA0122D6023146284667
:100CE000FFF75CFB0220FFF753FA0022314628464B
:100CF000FFF754FB0A20FFF74BFA4FF42A5A002261
:100D000051462846FFF74AFB44F2010800224146BB
:100D10003846FFF743FBE00501D5012200E0002241
:100D200049462846FFF73AFB200701D5012200E09B
:100D3000002259463846FFF731FB600701D50122F2
:100D400000E0002201213846FFF728FBA00701D56B
:100D5000012200E0002280212846FFF71FFBE00768
:100D600001D0012200E000224FF400712846FFF775
:100D700015FB0120FFF70CFA012231462846FFF748
:100D80000DFB0220FFF704FA002231462846FFF748
:100D900005FB0A20FFF7FCF9002251462846FFF721
:100DA000FDFA41463846BDE8F05F0022FFF7F6BA8B
:100DB0000018014000140140000000000000000085
:100DC0000102030406070809E80D000800000020DE
:100DD00010000000920B0008F80D00081000002021
:100DE00000040000A20B0008010000001000000039
:080DF0000000000000A24A040B
:0400000508000131BD
:00000001FF
